{
  "contractName": "Contract",
  "abi": [
    {
      "constant": true,
      "inputs": [],
      "name": "Name",
      "outputs": [
        {
          "name": "",
          "type": "bytes32"
        }
      ],
      "payable": false,
      "stateMutability": "view",
      "type": "function"
    },
    {
      "inputs": [
        {
          "name": "name",
          "type": "bytes32"
        }
      ],
      "payable": false,
      "stateMutability": "nonpayable",
      "type": "constructor"
    }
  ],
  "bytecode": "0x608060405234801561001057600080fd5b506040516020806100f38339810180604052810190808051906020019092919050505080600081600019169055505060a68061004d6000396000f300608060405260043610603f576000357c0100000000000000000000000000000000000000000000000000000000900463ffffffff1680638052474d146044575b600080fd5b348015604f57600080fd5b5060566074565b60405180826000191660001916815260200191505060405180910390f35b600054815600a165627a7a72305820db83f9c183a8aa396f75e23404c7d821163cf46c7ffb8e45dbb073df4786fc950029",
  "source": "contract Factory {\n    address[] public newContracts;\n    uint ETH;\n\n    function createContract (bytes32 name) {\n        address newContract = new Contract(name);\n        newContracts.push(newContract);\n       \n        \n    } \n    \n    function getnewContracts() view returns (address[]) {\n        return newContracts;\n    }\n    \n    function depositEther() payable {\n        ETH = ETH + msg.value;\n    }\n    \n    function returnEther() view returns (uint) {\n        return ETH;\n    }\n    \n    \n}\n\ncontract Contract {\n    bytes32 public Name;\n\n    function Contract (bytes32 name) {\n        Name = name;\n    }\n}",
  "sourcePath": "/Users/antonvs/Projects/gnosis/Onboarding-ICO/contracts/FactorySample/ContractFactory.sol",
  "compiler": {
    "name": "solc",
    "version": "0.4.24+commit.e67f0147.Emscripten.clang"
  },
  "schemaVersion": "2.0.0",
  "updatedAt": "2018-06-29T06:33:53.969Z"
}