{
  "contractName": "Contract",
  "abi": [
    {
      "constant": true,
      "inputs": [],
      "name": "Name",
      "outputs": [
        {
          "name": "",
          "type": "string"
        }
      ],
      "payable": false,
      "stateMutability": "view",
      "type": "function"
    },
    {
      "constant": true,
      "inputs": [],
      "name": "ETH",
      "outputs": [
        {
          "name": "",
          "type": "uint256"
        }
      ],
      "payable": false,
      "stateMutability": "view",
      "type": "function"
    },
    {
      "inputs": [
        {
          "name": "trueName",
          "type": "string"
        }
      ],
      "payable": false,
      "stateMutability": "nonpayable",
      "type": "constructor"
    },
    {
      "anonymous": false,
      "inputs": [
        {
          "indexed": true,
          "name": "_owner",
          "type": "address"
        },
        {
          "indexed": false,
          "name": "_value",
          "type": "uint256"
        }
      ],
      "name": "DepositMoney",
      "type": "event"
    },
    {
      "constant": false,
      "inputs": [],
      "name": "depositEther",
      "outputs": [],
      "payable": true,
      "stateMutability": "payable",
      "type": "function"
    }
  ],
  "bytecode": "0x608060405234801561001057600080fd5b50604051610350380380610350833981018060405281019080805182019291905050508060009080519060200190610049929190610050565b50506100f5565b828054600181600116156101000203166002900490600052602060002090601f016020900481019282601f1061009157805160ff19168380011785556100bf565b828001600101855582156100bf579182015b828111156100be5782518255916020019190600101906100a3565b5b5090506100cc91906100d0565b5090565b6100f291905b808211156100ee5760008160009055506001016100d6565b5090565b90565b61024c806101046000396000f300608060405260043610610057576000357c0100000000000000000000000000000000000000000000000000000000900463ffffffff1680638052474d1461005c5780638322fff2146100ec57806398ea5fca14610117575b600080fd5b34801561006857600080fd5b50610071610121565b6040518080602001828103825283818151815260200191508051906020019080838360005b838110156100b1578082015181840152602081019050610096565b50505050905090810190601f1680156100de5780820380516001836020036101000a031916815260200191505b509250505060405180910390f35b3480156100f857600080fd5b506101016101bf565b6040518082815260200191505060405180910390f35b61011f6101c5565b005b60008054600181600116156101000203166002900480601f0160208091040260200160405190810160405280929190818152602001828054600181600116156101000203166002900480156101b75780601f1061018c576101008083540402835291602001916101b7565b820191906000526020600020905b81548152906001019060200180831161019a57829003601f168201915b505050505081565b60015481565b34600154016001819055503373ffffffffffffffffffffffffffffffffffffffff167f32da008ef0adb5b8bb2978371e660b5698809318f802d847d32e722889ba0367346040518082815260200191505060405180910390a25600a165627a7a723058208aec6dc413a0acae8e11679c11a82aa0f19283c3bcb2355800d89cf34edfb9080029",
  "source": "pragma solidity ^0.4.4;\n\n// Contract Were Importing with the name\ncontract Contract {\n    string public Name;\n    uint256 public ETH;\n\n    event DepositMoney(address indexed _owner, uint256 _value);\n\n    function Contract (string trueName) {\n        Name = trueName;\n    }\n    \n    function depositEther() public payable {\n        ETH = ETH + msg.value;\n        emit DepositMoney(msg.sender, msg.value);\n    }\n}\n\ncontract Factory {\n    address[] public newContracts;\n    Contract public newContract;\n\n    event Deposit(address indexed depositor, uint256 value);\n\n    function createContract (string name) {\n        newContract = new Contract(name);\n        newContracts.push(newContract);\n    }\n\n    function firstContractBalance() view returns (uint) {\n        return newContract.balance;\n    }\n\n    function() payable {\n        if (msg.value > 0) {\n            emit Deposit(msg.sender, msg.value);\n        }\n    }\n}\n",
  "sourcePath": "/Users/antonvs/Projects/gnosis/ScamToken/contracts/tinkering/ContractFactory.sol",
  "compiler": {
    "name": "solc",
    "version": "0.4.25+commit.59dbf8f1.Emscripten.clang"
  },
  "schemaVersion": "2.0.2",
  "updatedAt": "2019-01-24T04:49:03.809Z"
}