{
  "contractName": "Crowdfunding",
  "abi": [
    {
      "constant": true,
      "inputs": [],
      "name": "active",
      "outputs": [
        {
          "name": "",
          "type": "bool"
        }
      ],
      "payable": false,
      "stateMutability": "view",
      "type": "function"
    },
    {
      "constant": true,
      "inputs": [],
      "name": "rate",
      "outputs": [
        {
          "name": "",
          "type": "uint256"
        }
      ],
      "payable": false,
      "stateMutability": "view",
      "type": "function"
    },
    {
      "constant": true,
      "inputs": [],
      "name": "SCM",
      "outputs": [
        {
          "name": "",
          "type": "address"
        }
      ],
      "payable": false,
      "stateMutability": "view",
      "type": "function"
    },
    {
      "constant": true,
      "inputs": [],
      "name": "weth",
      "outputs": [
        {
          "name": "",
          "type": "address"
        }
      ],
      "payable": false,
      "stateMutability": "view",
      "type": "function"
    },
    {
      "constant": true,
      "inputs": [],
      "name": "timeout",
      "outputs": [
        {
          "name": "",
          "type": "uint256"
        }
      ],
      "payable": false,
      "stateMutability": "view",
      "type": "function"
    },
    {
      "constant": true,
      "inputs": [],
      "name": "totalWethRaised",
      "outputs": [
        {
          "name": "",
          "type": "uint256"
        }
      ],
      "payable": false,
      "stateMutability": "view",
      "type": "function"
    },
    {
      "inputs": [
        {
          "name": "_scm",
          "type": "address"
        },
        {
          "name": "_rate",
          "type": "uint256"
        }
      ],
      "payable": false,
      "stateMutability": "nonpayable",
      "type": "constructor"
    },
    {
      "payable": false,
      "stateMutability": "nonpayable",
      "type": "fallback"
    },
    {
      "anonymous": false,
      "inputs": [
        {
          "indexed": true,
          "name": "buyer",
          "type": "address"
        },
        {
          "indexed": true,
          "name": "value",
          "type": "uint256"
        },
        {
          "indexed": false,
          "name": "amount",
          "type": "uint256"
        }
      ],
      "name": "Purchase",
      "type": "event"
    },
    {
      "anonymous": false,
      "inputs": [
        {
          "indexed": true,
          "name": "buyer",
          "type": "address"
        },
        {
          "indexed": false,
          "name": "amount",
          "type": "uint256"
        }
      ],
      "name": "FailedPurchase",
      "type": "event"
    },
    {
      "anonymous": false,
      "inputs": [
        {
          "indexed": false,
          "name": "recipient",
          "type": "address"
        },
        {
          "indexed": false,
          "name": "amount",
          "type": "uint256"
        }
      ],
      "name": "Withdrawl",
      "type": "event"
    },
    {
      "constant": false,
      "inputs": [
        {
          "name": "_amount",
          "type": "uint16"
        }
      ],
      "name": "purchase",
      "outputs": [],
      "payable": false,
      "stateMutability": "nonpayable",
      "type": "function"
    },
    {
      "constant": false,
      "inputs": [],
      "name": "withdraw",
      "outputs": [],
      "payable": false,
      "stateMutability": "nonpayable",
      "type": "function"
    }
  ],
  "bytecode": "0x608060405260016000806101000a81548160ff02191690831515021790555073c778417e063141139fce010982780140aa0cd5ab600560006101000a81548173ffffffffffffffffffffffffffffffffffffffff021916908373ffffffffffffffffffffffffffffffffffffffff16021790555034801561007f57600080fd5b50604051604080610ba7833981018060405281019080805190602001909291908051906020019092919050505081600660006101000a81548173ffffffffffffffffffffffffffffffffffffffff021916908373ffffffffffffffffffffffffffffffffffffffff160217905550806003819055505050610aa2806101056000396000f30060806040526004361061008e576000357c0100000000000000000000000000000000000000000000000000000000900463ffffffff16806302fb0c5e146100a05780632c4e722e146100cf5780633aa3b380146100fa5780633ccfd60b146101515780633fc8cef31461016857806370dea79a146101bf578063c3575950146101ea578063efbce03014610215575b34801561009a57600080fd5b50600080fd5b3480156100ac57600080fd5b506100b5610246565b604051808215151515815260200191505060405180910390f35b3480156100db57600080fd5b506100e4610258565b6040518082815260200191505060405180910390f35b34801561010657600080fd5b5061010f61025e565b604051808273ffffffffffffffffffffffffffffffffffffffff1673ffffffffffffffffffffffffffffffffffffffff16815260200191505060405180910390f35b34801561015d57600080fd5b50610166610284565b005b34801561017457600080fd5b5061017d610514565b604051808273ffffffffffffffffffffffffffffffffffffffff1673ffffffffffffffffffffffffffffffffffffffff16815260200191505060405180910390f35b3480156101cb57600080fd5b506101d461053a565b6040518082815260200191505060405180910390f35b3480156101f657600080fd5b506101ff610540565b6040518082815260200191505060405180910390f35b34801561022157600080fd5b50610244600480360381019080803561ffff169060200190929190505050610546565b005b6000809054906101000a900460ff1681565b60035481565b600660009054906101000a900473ffffffffffffffffffffffffffffffffffffffff1681565b6000809054906101000a900460ff161580156102a4575060786004540142115b151561033e576040517f08c379a000000000000000000000000000000000000000000000000000000000815260040180806020018281038252603b8152602001807f54686520737570657220636f6d706f756e64696e672066756e6473206172656e81526020017f277420726561647920746f20626520636c61696d6564207965742e000000000081525060400191505060405180910390fd5b6000600160003373ffffffffffffffffffffffffffffffffffffffff1673ffffffffffffffffffffffffffffffffffffffff168152602001908152602001600020541015151561038d57600080fd5b600660009054906101000a900473ffffffffffffffffffffffffffffffffffffffff1673ffffffffffffffffffffffffffffffffffffffff1663a9059cbb33600160003373ffffffffffffffffffffffffffffffffffffffff1673ffffffffffffffffffffffffffffffffffffffff168152602001908152602001600020546040518363ffffffff167c0100000000000000000000000000000000000000000000000000000000028152600401808373ffffffffffffffffffffffffffffffffffffffff1673ffffffffffffffffffffffffffffffffffffffff16815260200182815260200192505050602060405180830381600087803b15801561049157600080fd5b505af11580156104a5573d6000803e3d6000fd5b505050506040513d60208110156104bb57600080fd5b8101908080519060200190929190505050506000600160003373ffffffffffffffffffffffffffffffffffffffff1673ffffffffffffffffffffffffffffffffffffffff16815260200190815260200160002081905550565b600560009054906101000a900473ffffffffffffffffffffffffffffffffffffffff1681565b60045481565b60025481565b60008060009054906101000a900460ff161515610617576040517f08c379a00000000000000000000000000000000000000000000000000000000081526004018080602001828103825260428152602001807f5468652061756374696f6e206973206f7665722e204772656174206a6f622c2081526020017f61766f6964696e672074686973207472617020746f6f6b20696e74756974696f81526020017f6e2e00000000000000000000000000000000000000000000000000000000000081525060600191505060405180910390fd5b600560009054906101000a900473ffffffffffffffffffffffffffffffffffffffff1673ffffffffffffffffffffffffffffffffffffffff166323b872dd3330856040518463ffffffff167c0100000000000000000000000000000000000000000000000000000000028152600401808473ffffffffffffffffffffffffffffffffffffffff1673ffffffffffffffffffffffffffffffffffffffff1681526020018373ffffffffffffffffffffffffffffffffffffffff1673ffffffffffffffffffffffffffffffffffffffff1681526020018261ffff1681526020019350505050602060405180830381600087803b15801561071457600080fd5b505af1158015610728573d6000803e3d6000fd5b505050506040513d602081101561073e57600080fd5b810190808051906020019092919050505015610a1f576103e88261ffff166002540110151561095a576103e8600254039050600560009054906101000a900473ffffffffffffffffffffffffffffffffffffffff1673ffffffffffffffffffffffffffffffffffffffff1663a9059cbb33836040518363ffffffff167c0100000000000000000000000000000000000000000000000000000000028152600401808373ffffffffffffffffffffffffffffffffffffffff1673ffffffffffffffffffffffffffffffffffffffff16815260200182815260200192505050602060405180830381600087803b15801561083557600080fd5b505af1158015610849573d6000803e3d6000fd5b505050506040513d602081101561085f57600080fd5b810190808051906020019092919050505050808261ffff1603600260008282540192505081905550808261ffff1603600160003373ffffffffffffffffffffffffffffffffffffffff1673ffffffffffffffffffffffffffffffffffffffff1681526020019081526020016000206000828254019250508190555060008060006101000a81548160ff02191690831515021790555042600481905550600a820261ffff163373ffffffffffffffffffffffffffffffffffffffff167f12cb4648cf3058b17ceeb33e579f8b0bc269fe0843f3900b8e24b6c54871703c84604051808261ffff16815260200191505060405180910390a3610a1a565b8161ffff166002600082825401925050819055508161ffff16600160003373ffffffffffffffffffffffffffffffffffffffff1673ffffffffffffffffffffffffffffffffffffffff16815260200190815260200160002060008282540192505081905550600a820261ffff163373ffffffffffffffffffffffffffffffffffffffff167f12cb4648cf3058b17ceeb33e579f8b0bc269fe0843f3900b8e24b6c54871703c84604051808261ffff16815260200191505060405180910390a35b610a72565b3373ffffffffffffffffffffffffffffffffffffffff167f5a3d5d87392556656b9e05e89d5fb17b6e9d9f490a3d782022aa9e95fe648c5383604051808261ffff16815260200191505060405180910390a25b50505600a165627a7a7230582011ea3337fda5018ef2e8505f63b5ffe4510bffa2787aa890cff41e07dfad9d760029",
  "source": "pragma solidity ^0.4.4;\n\nimport './token/WETH.sol';\nimport './ScamToken.sol';\n\ncontract Crowdfunding {\n    bool public active = true;\n    mapping (address => uint256) balances;\n    uint256 public totalWethRaised;\n    uint256 public rate;\n    uint256 public timeout;\n    WETH9 public weth = WETH9(0xc778417E063141139Fce010982780140Aa0cD5Ab);\n    ScamToken public SCM;\n    \n    event Purchase(address indexed buyer, uint indexed value, uint amount);\n    event FailedPurchase(address indexed buyer, uint amount);\n    event Withdrawl(address recipient, uint256 amount);\n\n    constructor(ScamToken _scm, uint256 _rate) {\n        SCM = _scm;\n        rate = _rate;\n    }\n    \n    function purchase(uint16 _amount) public {\n        require(active, \"The auction is over. Great job, avoiding this trap took intuition.\");\n\n        if (weth.transferFrom(msg.sender, address(this), _amount)) {\n            if (totalWethRaised + _amount >= 1000) {\n                uint256 excessFunds = totalWethRaised - 1000;\n                weth.transfer(msg.sender, excessFunds);\n                totalWethRaised += _amount - excessFunds;\n                balances[msg.sender] += _amount - excessFunds;\n                active = false;\n                timeout = now;\n                emit Purchase(msg.sender, (_amount * 10), _amount);\n            } else {\n                totalWethRaised += _amount;\n                balances[msg.sender] += _amount;\n                emit Purchase(msg.sender, (_amount * 10), _amount);\n            }\n        } else {\n            emit FailedPurchase(msg.sender, _amount);\n        }\n    }\n\n    function withdraw() {\n        require(!active && (now > timeout + 120), \"The super compounding funds aren't ready to be claimed yet.\");\n        require(balances[msg.sender] >= 0);\n\n        SCM.transfer(msg.sender, balances[msg.sender]);\n        balances[msg.sender] = 0;\n\n    }\n\n    function() public {\n        revert();\n    }\n\n    /* Internal Interface */\n}",
  "sourcePath": "/Users/antonvs/Projects/gnosis/Onboarding-ICO/contracts/Crowdfunding.sol",
  "compiler": {
    "name": "solc",
    "version": "0.4.24+commit.e67f0147.Emscripten.clang"
  },
  "schemaVersion": "2.0.0",
  "updatedAt": "2018-07-06T01:02:35.634Z"
}