{
  "contractName": "Crowdfunding",
  "abi": [
    {
      "constant": true,
      "inputs": [],
      "name": "active",
      "outputs": [
        {
          "name": "",
          "type": "bool"
        }
      ],
      "payable": false,
      "stateMutability": "view",
      "type": "function"
    },
    {
      "constant": true,
      "inputs": [
        {
          "name": "",
          "type": "address"
        }
      ],
      "name": "balances",
      "outputs": [
        {
          "name": "",
          "type": "uint256"
        }
      ],
      "payable": false,
      "stateMutability": "view",
      "type": "function"
    },
    {
      "constant": true,
      "inputs": [],
      "name": "weth",
      "outputs": [
        {
          "name": "",
          "type": "address"
        }
      ],
      "payable": false,
      "stateMutability": "view",
      "type": "function"
    },
    {
      "constant": true,
      "inputs": [],
      "name": "totalWeiRaised",
      "outputs": [
        {
          "name": "",
          "type": "uint256"
        }
      ],
      "payable": false,
      "stateMutability": "view",
      "type": "function"
    },
    {
      "constant": true,
      "inputs": [],
      "name": "timeout",
      "outputs": [
        {
          "name": "",
          "type": "uint256"
        }
      ],
      "payable": false,
      "stateMutability": "view",
      "type": "function"
    },
    {
      "constant": false,
      "inputs": [],
      "name": "renounceOwnership",
      "outputs": [],
      "payable": false,
      "stateMutability": "nonpayable",
      "type": "function"
    },
    {
      "constant": true,
      "inputs": [],
      "name": "owner",
      "outputs": [
        {
          "name": "",
          "type": "address"
        }
      ],
      "payable": false,
      "stateMutability": "view",
      "type": "function"
    },
    {
      "constant": true,
      "inputs": [],
      "name": "scm",
      "outputs": [
        {
          "name": "",
          "type": "address"
        }
      ],
      "payable": false,
      "stateMutability": "view",
      "type": "function"
    },
    {
      "constant": false,
      "inputs": [
        {
          "name": "_newOwner",
          "type": "address"
        }
      ],
      "name": "transferOwnership",
      "outputs": [],
      "payable": false,
      "stateMutability": "nonpayable",
      "type": "function"
    },
    {
      "inputs": [
        {
          "name": "_scm",
          "type": "address"
        },
        {
          "name": "_weth",
          "type": "address"
        }
      ],
      "payable": false,
      "stateMutability": "nonpayable",
      "type": "constructor"
    },
    {
      "payable": false,
      "stateMutability": "nonpayable",
      "type": "fallback"
    },
    {
      "anonymous": false,
      "inputs": [
        {
          "indexed": true,
          "name": "buyer",
          "type": "address"
        },
        {
          "indexed": true,
          "name": "value",
          "type": "uint256"
        },
        {
          "indexed": false,
          "name": "amount",
          "type": "uint256"
        }
      ],
      "name": "Purchase",
      "type": "event"
    },
    {
      "anonymous": false,
      "inputs": [
        {
          "indexed": true,
          "name": "buyer",
          "type": "address"
        },
        {
          "indexed": false,
          "name": "amount",
          "type": "uint256"
        }
      ],
      "name": "FailedPurchase",
      "type": "event"
    },
    {
      "anonymous": false,
      "inputs": [
        {
          "indexed": false,
          "name": "recipient",
          "type": "address"
        },
        {
          "indexed": false,
          "name": "amount",
          "type": "uint256"
        }
      ],
      "name": "Withdrawl",
      "type": "event"
    },
    {
      "anonymous": false,
      "inputs": [
        {
          "indexed": true,
          "name": "previousOwner",
          "type": "address"
        }
      ],
      "name": "OwnershipRenounced",
      "type": "event"
    },
    {
      "anonymous": false,
      "inputs": [
        {
          "indexed": true,
          "name": "previousOwner",
          "type": "address"
        },
        {
          "indexed": true,
          "name": "newOwner",
          "type": "address"
        }
      ],
      "name": "OwnershipTransferred",
      "type": "event"
    },
    {
      "constant": false,
      "inputs": [
        {
          "name": "_amount",
          "type": "uint256"
        }
      ],
      "name": "purchase",
      "outputs": [
        {
          "name": "",
          "type": "bool"
        }
      ],
      "payable": false,
      "stateMutability": "nonpayable",
      "type": "function"
    },
    {
      "constant": false,
      "inputs": [],
      "name": "withdraw",
      "outputs": [],
      "payable": false,
      "stateMutability": "nonpayable",
      "type": "function"
    }
  ],
  "bytecode": "0x60806040526001600260146101000a81548160ff02191690831515021790555034801561002b57600080fd5b5060405160408061118a8339810180604052810190808051906020019092919080519060200190929190505050336000806101000a81548173ffffffffffffffffffffffffffffffffffffffff021916908373ffffffffffffffffffffffffffffffffffffffff16021790555081600260006101000a81548173ffffffffffffffffffffffffffffffffffffffff021916908373ffffffffffffffffffffffffffffffffffffffff16021790555080600160006101000a81548173ffffffffffffffffffffffffffffffffffffffff021916908373ffffffffffffffffffffffffffffffffffffffff160217905550505061105f8061012b6000396000f3006080604052600436106100af576000357c0100000000000000000000000000000000000000000000000000000000900463ffffffff16806302fb0c5e146100be57806327e235e3146100ed5780633ccfd60b146101445780633fc8cef31461015b57806353f4db01146101b257806370dea79a146101dd578063715018a6146102085780638da5cb5b1461021f578063db91548114610276578063efef39a1146102cd578063f2fde38b14610312575b3480156100bb57600080fd5b50005b3480156100ca57600080fd5b506100d3610355565b604051808215151515815260200191505060405180910390f35b3480156100f957600080fd5b5061012e600480360381019080803573ffffffffffffffffffffffffffffffffffffffff169060200190929190505050610368565b6040518082815260200191505060405180910390f35b34801561015057600080fd5b50610159610380565b005b34801561016757600080fd5b5061017061062a565b604051808273ffffffffffffffffffffffffffffffffffffffff1673ffffffffffffffffffffffffffffffffffffffff16815260200191505060405180910390f35b3480156101be57600080fd5b506101c7610650565b6040518082815260200191505060405180910390f35b3480156101e957600080fd5b506101f2610656565b6040518082815260200191505060405180910390f35b34801561021457600080fd5b5061021d61065c565b005b34801561022b57600080fd5b5061023461075e565b604051808273ffffffffffffffffffffffffffffffffffffffff1673ffffffffffffffffffffffffffffffffffffffff16815260200191505060405180910390f35b34801561028257600080fd5b5061028b610783565b604051808273ffffffffffffffffffffffffffffffffffffffff1673ffffffffffffffffffffffffffffffffffffffff16815260200191505060405180910390f35b3480156102d957600080fd5b506102f8600480360381019080803590602001909291905050506107a9565b604051808215151515815260200191505060405180910390f35b34801561031e57600080fd5b50610353600480360381019080803573ffffffffffffffffffffffffffffffffffffffff169060200190929190505050610e65565b005b600260149054906101000a900460ff1681565b60036020528060005260406000206000915090505481565b6000600260149054906101000a900460ff161580156103a3575060786005540142115b151561043d576040517f08c379a000000000000000000000000000000000000000000000000000000000815260040180806020018281038252603b8152602001807f54686520737570657220636f6d706f756e64696e672066756e6473206172656e81526020017f277420726561647920746f20626520636c61696d6564207965742e000000000081525060400191505060405180910390fd5b6000600360003373ffffffffffffffffffffffffffffffffffffffff1673ffffffffffffffffffffffffffffffffffffffff168152602001908152602001600020541015151561048c57600080fd5b600360003373ffffffffffffffffffffffffffffffffffffffff1673ffffffffffffffffffffffffffffffffffffffff1681526020019081526020016000205490506000600360003373ffffffffffffffffffffffffffffffffffffffff1673ffffffffffffffffffffffffffffffffffffffff16815260200190815260200160002081905550600260009054906101000a900473ffffffffffffffffffffffffffffffffffffffff1673ffffffffffffffffffffffffffffffffffffffff1663a9059cbb33610566600a85610ecc90919063ffffffff16565b6040518363ffffffff167c0100000000000000000000000000000000000000000000000000000000028152600401808373ffffffffffffffffffffffffffffffffffffffff1673ffffffffffffffffffffffffffffffffffffffff16815260200182815260200192505050602060405180830381600087803b1580156105eb57600080fd5b505af11580156105ff573d6000803e3d6000fd5b505050506040513d602081101561061557600080fd5b81019080805190602001909291905050505050565b600160009054906101000a900473ffffffffffffffffffffffffffffffffffffffff1681565b60045481565b60055481565b6000809054906101000a900473ffffffffffffffffffffffffffffffffffffffff1673ffffffffffffffffffffffffffffffffffffffff163373ffffffffffffffffffffffffffffffffffffffff161415156106b757600080fd5b6000809054906101000a900473ffffffffffffffffffffffffffffffffffffffff1673ffffffffffffffffffffffffffffffffffffffff167ff8df31144d9c2f0f6b59d69b8b98abd5459d07f2742c4df920b25aae33c6482060405160405180910390a260008060006101000a81548173ffffffffffffffffffffffffffffffffffffffff021916908373ffffffffffffffffffffffffffffffffffffffff160217905550565b6000809054906101000a900473ffffffffffffffffffffffffffffffffffffffff1681565b600260009054906101000a900473ffffffffffffffffffffffffffffffffffffffff1681565b600080600260149054906101000a900460ff16151561087c576040517f08c379a00000000000000000000000000000000000000000000000000000000081526004018080602001828103825260428152602001807f5468652061756374696f6e206973206f7665722e204772656174206a6f622c2081526020017f61766f6964696e672074686973207472617020746f6f6b20696e74756974696f81526020017f6e2e00000000000000000000000000000000000000000000000000000000000081525060600191505060405180910390fd5b600160009054906101000a900473ffffffffffffffffffffffffffffffffffffffff1673ffffffffffffffffffffffffffffffffffffffff166323b872dd3330866040518463ffffffff167c0100000000000000000000000000000000000000000000000000000000028152600401808473ffffffffffffffffffffffffffffffffffffffff1673ffffffffffffffffffffffffffffffffffffffff1681526020018373ffffffffffffffffffffffffffffffffffffffff1673ffffffffffffffffffffffffffffffffffffffff1681526020018281526020019350505050602060405180830381600087803b15801561097557600080fd5b505af1158015610989573d6000803e3d6000fd5b505050506040513d602081101561099f57600080fd5b810190808051906020019092919050505015610dfd57683635c9adc5dea000006109d484600454610f0490919063ffffffff16565b101515610d1957610a0b683635c9adc5dea000006109fd85600454610f0490919063ffffffff16565b610f2090919063ffffffff16565b9050600160009054906101000a900473ffffffffffffffffffffffffffffffffffffffff1673ffffffffffffffffffffffffffffffffffffffff1663095ea7b333836040518363ffffffff167c0100000000000000000000000000000000000000000000000000000000028152600401808373ffffffffffffffffffffffffffffffffffffffff1673ffffffffffffffffffffffffffffffffffffffff16815260200182815260200192505050602060405180830381600087803b158015610ad257600080fd5b505af1158015610ae6573d6000803e3d6000fd5b505050506040513d6020811015610afc57600080fd5b810190808051906020019092919050505050600160009054906101000a900473ffffffffffffffffffffffffffffffffffffffff1673ffffffffffffffffffffffffffffffffffffffff1663a9059cbb33836040518363ffffffff167c0100000000000000000000000000000000000000000000000000000000028152600401808373ffffffffffffffffffffffffffffffffffffffff1673ffffffffffffffffffffffffffffffffffffffff16815260200182815260200192505050602060405180830381600087803b158015610bd357600080fd5b505af1158015610be7573d6000803e3d6000fd5b505050506040513d6020811015610bfd57600080fd5b810190808051906020019092919050505050610c26818403600454610f0490919063ffffffff16565b50808303600360003373ffffffffffffffffffffffffffffffffffffffff1673ffffffffffffffffffffffffffffffffffffffff168152602001908152602001600020600082825401925050819055506000600260146101000a81548160ff02191690831515021790555042600581905550600a670de0b6b3a764000084811515610cad57fe5b04023373ffffffffffffffffffffffffffffffffffffffff167f12cb4648cf3058b17ceeb33e579f8b0bc269fe0843f3900b8e24b6c54871703c670de0b6b3a764000086811515610cfa57fe5b046040518082815260200191505060405180910390a360019150610e5f565b610d2e83600454610f0490919063ffffffff16565b5082600360003373ffffffffffffffffffffffffffffffffffffffff1673ffffffffffffffffffffffffffffffffffffffff16815260200190815260200160002060008282540192505081905550600a670de0b6b3a764000084811515610d9157fe5b04023373ffffffffffffffffffffffffffffffffffffffff167f12cb4648cf3058b17ceeb33e579f8b0bc269fe0843f3900b8e24b6c54871703c670de0b6b3a764000086811515610dde57fe5b046040518082815260200191505060405180910390a360019150610e5f565b3373ffffffffffffffffffffffffffffffffffffffff167f5a3d5d87392556656b9e05e89d5fb17b6e9d9f490a3d782022aa9e95fe648c53670de0b6b3a764000085811515610e4857fe5b046040518082815260200191505060405180910390a25b50919050565b6000809054906101000a900473ffffffffffffffffffffffffffffffffffffffff1673ffffffffffffffffffffffffffffffffffffffff163373ffffffffffffffffffffffffffffffffffffffff16141515610ec057600080fd5b610ec981610f39565b50565b600080831415610edf5760009050610efe565b8183029050818382811515610ef057fe5b04141515610efa57fe5b8090505b92915050565b60008183019050828110151515610f1757fe5b80905092915050565b6000828211151515610f2e57fe5b818303905092915050565b600073ffffffffffffffffffffffffffffffffffffffff168173ffffffffffffffffffffffffffffffffffffffff1614151515610f7557600080fd5b8073ffffffffffffffffffffffffffffffffffffffff166000809054906101000a900473ffffffffffffffffffffffffffffffffffffffff1673ffffffffffffffffffffffffffffffffffffffff167f8be0079c531659141344cd1fd0a4f28419497f9722a3daafe3b4186f6b6457e060405160405180910390a3806000806101000a81548173ffffffffffffffffffffffffffffffffffffffff021916908373ffffffffffffffffffffffffffffffffffffffff160217905550505600a165627a7a723058200d544e41696d536d3dbc0621440ef73fbfdfd5c313d93810141ea6d8503ac47b0029",
  "source": "pragma solidity ^0.4.4;\n\nimport './token/WETH.sol';\nimport './ScamToken.sol';\nimport './lib/SafeMath.sol';\nimport 'openzeppelin-solidity/contracts/ownership/Ownable.sol';\n\ncontract Crowdfunding is Ownable {\n    using SafeMath for uint;\n    // Rinkeby WETH contract\n    WETH9 public weth;\n    ScamToken public scm;\n    \n    bool public active = true;\n    mapping (address => uint256) public balances;\n    uint256 public totalWeiRaised;\n    uint256 public timeout;\n    \n    event Purchase(address indexed buyer, uint indexed value, uint amount);\n    event FailedPurchase(address indexed buyer, uint amount);\n    event Withdrawl(address recipient, uint256 amount);\n\n    constructor(ScamToken _scm, WETH9 _weth) {\n        scm = _scm;\n        weth = _weth;\n    }\n    \n    function purchase(uint _amount) public returns(bool) {\n        require(active, \"The auction is over. Great job, avoiding this trap took intuition.\");\n        if (weth.transferFrom(msg.sender, address(this), _amount)) {\n            if (totalWeiRaised.add(_amount) >= 1000 ether) {\n                uint256 excessFunds = totalWeiRaised.add(_amount).sub(1000 ether);\n                weth.approve(msg.sender, excessFunds);\n                weth.transfer(msg.sender, excessFunds);\n                totalWeiRaised.add(_amount - excessFunds);\n                balances[msg.sender] += _amount - excessFunds;\n                active = false;\n                timeout = now;\n                emit Purchase(msg.sender, (_amount/(1 ether) * 10), _amount/(1 ether));\n                return true;\n            } else {\n                totalWeiRaised.add(_amount);\n                balances[msg.sender] += _amount;\n                emit Purchase(msg.sender, (_amount/(1 ether) * 10), _amount/(1 ether));\n                return true;\n            }\n        } else {\n            emit FailedPurchase(msg.sender, _amount/(1 ether));\n        }\n    }\n\n    function withdraw() {\n        require(!active && (now > timeout + 120), \"The super compounding funds aren't ready to be claimed yet.\");\n        require(balances[msg.sender] >= 0);\n        uint256 senderBalance = balances[msg.sender];\n        balances[msg.sender] = 0;\n\n        scm.transfer(msg.sender, (senderBalance.mul(10)));\n\n    }\n\n    function() public {\n\n    }\n}",
  "sourcePath": "/Users/antonvs/Projects/gnosis/ScamToken/contracts/Crowdfunding.sol",
  "compiler": {
    "name": "solc",
    "version": "0.4.25+commit.59dbf8f1.Emscripten.clang"
  },
  "schemaVersion": "2.0.2",
  "updatedAt": "2019-01-24T05:53:53.831Z"
}