{
  "contractName": "Crowdfunding",
  "abi": [
    {
      "constant": true,
      "inputs": [],
      "name": "active",
      "outputs": [
        {
          "name": "",
          "type": "bool"
        }
      ],
      "payable": false,
      "stateMutability": "view",
      "type": "function"
    },
    {
      "constant": true,
      "inputs": [
        {
          "name": "",
          "type": "address"
        }
      ],
      "name": "balances",
      "outputs": [
        {
          "name": "",
          "type": "uint256"
        }
      ],
      "payable": false,
      "stateMutability": "view",
      "type": "function"
    },
    {
      "constant": true,
      "inputs": [],
      "name": "weth",
      "outputs": [
        {
          "name": "",
          "type": "address"
        }
      ],
      "payable": false,
      "stateMutability": "view",
      "type": "function"
    },
    {
      "constant": true,
      "inputs": [],
      "name": "totalWeiRaised",
      "outputs": [
        {
          "name": "",
          "type": "uint256"
        }
      ],
      "payable": false,
      "stateMutability": "view",
      "type": "function"
    },
    {
      "constant": true,
      "inputs": [],
      "name": "timeout",
      "outputs": [
        {
          "name": "",
          "type": "uint256"
        }
      ],
      "payable": false,
      "stateMutability": "view",
      "type": "function"
    },
    {
      "constant": true,
      "inputs": [],
      "name": "scm",
      "outputs": [
        {
          "name": "",
          "type": "address"
        }
      ],
      "payable": false,
      "stateMutability": "view",
      "type": "function"
    },
    {
      "inputs": [
        {
          "name": "_scm",
          "type": "address"
        },
        {
          "name": "_weth",
          "type": "address"
        }
      ],
      "payable": false,
      "stateMutability": "nonpayable",
      "type": "constructor"
    },
    {
      "payable": false,
      "stateMutability": "nonpayable",
      "type": "fallback"
    },
    {
      "anonymous": false,
      "inputs": [
        {
          "indexed": true,
          "name": "buyer",
          "type": "address"
        },
        {
          "indexed": true,
          "name": "value",
          "type": "uint256"
        },
        {
          "indexed": false,
          "name": "amount",
          "type": "uint256"
        }
      ],
      "name": "Purchase",
      "type": "event"
    },
    {
      "anonymous": false,
      "inputs": [
        {
          "indexed": true,
          "name": "buyer",
          "type": "address"
        },
        {
          "indexed": false,
          "name": "amount",
          "type": "uint256"
        }
      ],
      "name": "FailedPurchase",
      "type": "event"
    },
    {
      "anonymous": false,
      "inputs": [
        {
          "indexed": false,
          "name": "recipient",
          "type": "address"
        },
        {
          "indexed": false,
          "name": "amount",
          "type": "uint256"
        }
      ],
      "name": "Withdrawl",
      "type": "event"
    },
    {
      "constant": false,
      "inputs": [
        {
          "name": "_amount",
          "type": "uint256"
        }
      ],
      "name": "purchase",
      "outputs": [
        {
          "name": "",
          "type": "bool"
        }
      ],
      "payable": false,
      "stateMutability": "nonpayable",
      "type": "function"
    },
    {
      "constant": false,
      "inputs": [],
      "name": "withdraw",
      "outputs": [],
      "payable": false,
      "stateMutability": "nonpayable",
      "type": "function"
    }
  ],
  "bytecode": "0x608060405260018060146101000a81548160ff02191690831515021790555034801561002a57600080fd5b50604051604080610d31833981018060405281019080805190602001909291908051906020019092919050505081600160006101000a81548173ffffffffffffffffffffffffffffffffffffffff021916908373ffffffffffffffffffffffffffffffffffffffff160217905550806000806101000a81548173ffffffffffffffffffffffffffffffffffffffff021916908373ffffffffffffffffffffffffffffffffffffffff1602179055505050610c48806100e96000396000f30060806040526004361061008e576000357c0100000000000000000000000000000000000000000000000000000000900463ffffffff16806302fb0c5e1461009d57806327e235e3146100cc5780633ccfd60b146101235780633fc8cef31461013a57806353f4db011461019157806370dea79a146101bc578063db915481146101e7578063efef39a11461023e575b34801561009a57600080fd5b50005b3480156100a957600080fd5b506100b2610283565b604051808215151515815260200191505060405180910390f35b3480156100d857600080fd5b5061010d600480360381019080803573ffffffffffffffffffffffffffffffffffffffff169060200190929190505050610296565b6040518082815260200191505060405180910390f35b34801561012f57600080fd5b506101386102ae565b005b34801561014657600080fd5b5061014f610548565b604051808273ffffffffffffffffffffffffffffffffffffffff1673ffffffffffffffffffffffffffffffffffffffff16815260200191505060405180910390f35b34801561019d57600080fd5b506101a661056d565b6040518082815260200191505060405180910390f35b3480156101c857600080fd5b506101d1610573565b6040518082815260200191505060405180910390f35b3480156101f357600080fd5b506101fc610579565b604051808273ffffffffffffffffffffffffffffffffffffffff1673ffffffffffffffffffffffffffffffffffffffff16815260200191505060405180910390f35b34801561024a57600080fd5b506102696004803603810190808035906020019092919050505061059f565b604051808215151515815260200191505060405180910390f35b600160149054906101000a900460ff1681565b60026020528060005260406000206000915090505481565b6000600160149054906101000a900460ff161580156102d1575060786004540142115b151561036b576040517f08c379a000000000000000000000000000000000000000000000000000000000815260040180806020018281038252603b8152602001807f54686520737570657220636f6d706f756e64696e672066756e6473206172656e81526020017f277420726561647920746f20626520636c61696d6564207965742e000000000081525060400191505060405180910390fd5b6000600260003373ffffffffffffffffffffffffffffffffffffffff1673ffffffffffffffffffffffffffffffffffffffff16815260200190815260200160002054101515156103ba57600080fd5b600260003373ffffffffffffffffffffffffffffffffffffffff1673ffffffffffffffffffffffffffffffffffffffff1681526020019081526020016000205490506000600260003373ffffffffffffffffffffffffffffffffffffffff1673ffffffffffffffffffffffffffffffffffffffff16815260200190815260200160002081905550600160009054906101000a900473ffffffffffffffffffffffffffffffffffffffff1673ffffffffffffffffffffffffffffffffffffffff1663a9059cbb33600a84026040518363ffffffff167c0100000000000000000000000000000000000000000000000000000000028152600401808373ffffffffffffffffffffffffffffffffffffffff1673ffffffffffffffffffffffffffffffffffffffff16815260200182815260200192505050602060405180830381600087803b15801561050957600080fd5b505af115801561051d573d6000803e3d6000fd5b505050506040513d602081101561053357600080fd5b81019080805190602001909291905050505050565b6000809054906101000a900473ffffffffffffffffffffffffffffffffffffffff1681565b60035481565b60045481565b600160009054906101000a900473ffffffffffffffffffffffffffffffffffffffff1681565b600080600160149054906101000a900460ff161515610672576040517f08c379a00000000000000000000000000000000000000000000000000000000081526004018080602001828103825260428152602001807f5468652061756374696f6e206973206f7665722e204772656174206a6f622c2081526020017f61766f6964696e672074686973207472617020746f6f6b20696e74756974696f81526020017f6e2e00000000000000000000000000000000000000000000000000000000000081525060600191505060405180910390fd5b6000809054906101000a900473ffffffffffffffffffffffffffffffffffffffff1673ffffffffffffffffffffffffffffffffffffffff166323b872dd3330866040518463ffffffff167c0100000000000000000000000000000000000000000000000000000000028152600401808473ffffffffffffffffffffffffffffffffffffffff1673ffffffffffffffffffffffffffffffffffffffff1681526020018373ffffffffffffffffffffffffffffffffffffffff1673ffffffffffffffffffffffffffffffffffffffff1681526020018281526020019350505050602060405180830381600087803b15801561076a57600080fd5b505af115801561077e573d6000803e3d6000fd5b505050506040513d602081101561079457600080fd5b810190808051906020019092919050505015610bb457683635c9adc5dea000008360035401101515610ad657683635c9adc5dea0000083600354010390506000809054906101000a900473ffffffffffffffffffffffffffffffffffffffff1673ffffffffffffffffffffffffffffffffffffffff1663095ea7b333836040518363ffffffff167c0100000000000000000000000000000000000000000000000000000000028152600401808373ffffffffffffffffffffffffffffffffffffffff1673ffffffffffffffffffffffffffffffffffffffff16815260200182815260200192505050602060405180830381600087803b15801561089657600080fd5b505af11580156108aa573d6000803e3d6000fd5b505050506040513d60208110156108c057600080fd5b8101908080519060200190929190505050506000809054906101000a900473ffffffffffffffffffffffffffffffffffffffff1673ffffffffffffffffffffffffffffffffffffffff1663a9059cbb33836040518363ffffffff167c0100000000000000000000000000000000000000000000000000000000028152600401808373ffffffffffffffffffffffffffffffffffffffff1673ffffffffffffffffffffffffffffffffffffffff16815260200182815260200192505050602060405180830381600087803b15801561099657600080fd5b505af11580156109aa573d6000803e3d6000fd5b505050506040513d60208110156109c057600080fd5b810190808051906020019092919050505050808303600360008282540192505081905550808303600260003373ffffffffffffffffffffffffffffffffffffffff1673ffffffffffffffffffffffffffffffffffffffff168152602001908152602001600020600082825401925050819055506000600160146101000a81548160ff02191690831515021790555042600481905550600a670de0b6b3a764000084811515610a6a57fe5b04023373ffffffffffffffffffffffffffffffffffffffff167f12cb4648cf3058b17ceeb33e579f8b0bc269fe0843f3900b8e24b6c54871703c670de0b6b3a764000086811515610ab757fe5b046040518082815260200191505060405180910390a360019150610c16565b8260036000828254019250508190555082600260003373ffffffffffffffffffffffffffffffffffffffff1673ffffffffffffffffffffffffffffffffffffffff16815260200190815260200160002060008282540192505081905550600a670de0b6b3a764000084811515610b4857fe5b04023373ffffffffffffffffffffffffffffffffffffffff167f12cb4648cf3058b17ceeb33e579f8b0bc269fe0843f3900b8e24b6c54871703c670de0b6b3a764000086811515610b9557fe5b046040518082815260200191505060405180910390a360019150610c16565b3373ffffffffffffffffffffffffffffffffffffffff167f5a3d5d87392556656b9e05e89d5fb17b6e9d9f490a3d782022aa9e95fe648c53670de0b6b3a764000085811515610bff57fe5b046040518082815260200191505060405180910390a25b509190505600a165627a7a723058202aaee23ee25981068d1573fa224acf3c5b20e8817560538932b2872124a1037d0029",
  "source": "pragma solidity ^0.4.4;\n\nimport './token/WETH.sol';\nimport './ScamToken.sol';\n\ncontract Crowdfunding {\n    // Rinkeby WETH contract\n    WETH9 public weth;\n    ScamToken public scm;\n    \n    bool public active = true;\n    mapping (address => uint256) public balances;\n    uint256 public totalWeiRaised;\n    uint256 public timeout;\n    \n    event Purchase(address indexed buyer, uint indexed value, uint amount);\n    event FailedPurchase(address indexed buyer, uint amount);\n    event Withdrawl(address recipient, uint256 amount);\n\n    constructor(ScamToken _scm, WETH9 _weth) {\n        scm = _scm;\n        weth = _weth;\n    }\n    \n    function purchase(uint _amount) public returns(bool) {\n        require(active, \"The auction is over. Great job, avoiding this trap took intuition.\");\n        if (weth.transferFrom(msg.sender, address(this), _amount)) {\n            if (totalWeiRaised + _amount >= 1000 ether) {\n                uint256 excessFunds = totalWeiRaised + _amount - 1000 ether;\n                weth.approve(msg.sender, excessFunds);\n                weth.transfer(msg.sender, excessFunds);\n                totalWeiRaised += _amount - excessFunds;\n                balances[msg.sender] += _amount - excessFunds;\n                active = false;\n                timeout = now;\n                emit Purchase(msg.sender, (_amount/(1 ether) * 10), _amount/(1 ether));\n                return true;\n            } else {\n                totalWeiRaised += _amount;\n                balances[msg.sender] += _amount;\n                emit Purchase(msg.sender, (_amount/(1 ether) * 10), _amount/(1 ether));\n                return true;\n            }\n        } else {\n            emit FailedPurchase(msg.sender, _amount/(1 ether));\n        }\n    }\n\n    function withdraw() {\n        require(!active && (now > timeout + 120), \"The super compounding funds aren't ready to be claimed yet.\");\n        require(balances[msg.sender] >= 0);\n        uint256 senderBalance = balances[msg.sender];\n        balances[msg.sender] = 0;\n\n        scm.transfer(msg.sender, (senderBalance * 10));\n\n    }\n\n    function() public {\n\n    }\n}",
  "sourcePath": "/Users/antonvs/Projects/gnosis/ScamToken/contracts/Crowdfunding.sol",
  "compiler": {
    "name": "solc",
    "version": "0.4.24+commit.e67f0147.Emscripten.clang"
  },
  "schemaVersion": "2.0.1",
  "updatedAt": "2018-07-10T19:26:32.720Z"
}