{
  "contractName": "Crowdfunding",
  "abi": [
    {
      "constant": true,
      "inputs": [],
      "name": "active",
      "outputs": [
        {
          "name": "",
          "type": "bool"
        }
      ],
      "payable": false,
      "stateMutability": "view",
      "type": "function"
    },
    {
      "constant": true,
      "inputs": [
        {
          "name": "",
          "type": "address"
        }
      ],
      "name": "balances",
      "outputs": [
        {
          "name": "",
          "type": "uint256"
        }
      ],
      "payable": false,
      "stateMutability": "view",
      "type": "function"
    },
    {
      "constant": true,
      "inputs": [],
      "name": "SCM",
      "outputs": [
        {
          "name": "",
          "type": "address"
        }
      ],
      "payable": false,
      "stateMutability": "view",
      "type": "function"
    },
    {
      "constant": true,
      "inputs": [],
      "name": "weth",
      "outputs": [
        {
          "name": "",
          "type": "address"
        }
      ],
      "payable": false,
      "stateMutability": "view",
      "type": "function"
    },
    {
      "constant": true,
      "inputs": [],
      "name": "totalWeiRaised",
      "outputs": [
        {
          "name": "",
          "type": "uint256"
        }
      ],
      "payable": false,
      "stateMutability": "view",
      "type": "function"
    },
    {
      "constant": true,
      "inputs": [],
      "name": "timeout",
      "outputs": [
        {
          "name": "",
          "type": "uint256"
        }
      ],
      "payable": false,
      "stateMutability": "view",
      "type": "function"
    },
    {
      "inputs": [
        {
          "name": "_scm",
          "type": "address"
        }
      ],
      "payable": false,
      "stateMutability": "nonpayable",
      "type": "constructor"
    },
    {
      "payable": false,
      "stateMutability": "nonpayable",
      "type": "fallback"
    },
    {
      "anonymous": false,
      "inputs": [
        {
          "indexed": true,
          "name": "buyer",
          "type": "address"
        },
        {
          "indexed": true,
          "name": "value",
          "type": "uint256"
        },
        {
          "indexed": false,
          "name": "amount",
          "type": "uint256"
        }
      ],
      "name": "Purchase",
      "type": "event"
    },
    {
      "anonymous": false,
      "inputs": [
        {
          "indexed": true,
          "name": "buyer",
          "type": "address"
        },
        {
          "indexed": false,
          "name": "amount",
          "type": "uint256"
        }
      ],
      "name": "FailedPurchase",
      "type": "event"
    },
    {
      "anonymous": false,
      "inputs": [
        {
          "indexed": false,
          "name": "recipient",
          "type": "address"
        },
        {
          "indexed": false,
          "name": "amount",
          "type": "uint256"
        }
      ],
      "name": "Withdrawl",
      "type": "event"
    },
    {
      "constant": false,
      "inputs": [
        {
          "name": "_amount",
          "type": "uint256"
        }
      ],
      "name": "purchase",
      "outputs": [
        {
          "name": "",
          "type": "bool"
        }
      ],
      "payable": false,
      "stateMutability": "nonpayable",
      "type": "function"
    },
    {
      "constant": false,
      "inputs": [],
      "name": "withdraw",
      "outputs": [],
      "payable": false,
      "stateMutability": "nonpayable",
      "type": "function"
    }
  ],
  "bytecode": "0x608060405273c778417e063141139fce010982780140aa0cd5ab6000806101000a81548173ffffffffffffffffffffffffffffffffffffffff021916908373ffffffffffffffffffffffffffffffffffffffff16021790555060018060146101000a81548160ff02191690831515021790555034801561007e57600080fd5b50604051602080610d348339810180604052810190808051906020019092919050505080600160006101000a81548173ffffffffffffffffffffffffffffffffffffffff021916908373ffffffffffffffffffffffffffffffffffffffff16021790555050610c42806100f26000396000f30060806040526004361061008e576000357c0100000000000000000000000000000000000000000000000000000000900463ffffffff16806302fb0c5e1461009d57806327e235e3146100cc5780633aa3b380146101235780633ccfd60b1461017a5780633fc8cef31461019157806353f4db01146101e857806370dea79a14610213578063efef39a11461023e575b34801561009a57600080fd5b50005b3480156100a957600080fd5b506100b2610283565b604051808215151515815260200191505060405180910390f35b3480156100d857600080fd5b5061010d600480360381019080803573ffffffffffffffffffffffffffffffffffffffff169060200190929190505050610296565b6040518082815260200191505060405180910390f35b34801561012f57600080fd5b506101386102ae565b604051808273ffffffffffffffffffffffffffffffffffffffff1673ffffffffffffffffffffffffffffffffffffffff16815260200191505060405180910390f35b34801561018657600080fd5b5061018f6102d4565b005b34801561019d57600080fd5b506101a6610568565b604051808273ffffffffffffffffffffffffffffffffffffffff1673ffffffffffffffffffffffffffffffffffffffff16815260200191505060405180910390f35b3480156101f457600080fd5b506101fd61058d565b6040518082815260200191505060405180910390f35b34801561021f57600080fd5b50610228610593565b6040518082815260200191505060405180910390f35b34801561024a57600080fd5b5061026960048036038101908080359060200190929190505050610599565b604051808215151515815260200191505060405180910390f35b600160149054906101000a900460ff1681565b60026020528060005260406000206000915090505481565b600160009054906101000a900473ffffffffffffffffffffffffffffffffffffffff1681565b600160149054906101000a900460ff161580156102f5575060786004540142115b151561038f576040517f08c379a000000000000000000000000000000000000000000000000000000000815260040180806020018281038252603b8152602001807f54686520737570657220636f6d706f756e64696e672066756e6473206172656e81526020017f277420726561647920746f20626520636c61696d6564207965742e000000000081525060400191505060405180910390fd5b6000600260003373ffffffffffffffffffffffffffffffffffffffff1673ffffffffffffffffffffffffffffffffffffffff16815260200190815260200160002054101515156103de57600080fd5b600160009054906101000a900473ffffffffffffffffffffffffffffffffffffffff1673ffffffffffffffffffffffffffffffffffffffff1663a9059cbb33600a600260003373ffffffffffffffffffffffffffffffffffffffff1673ffffffffffffffffffffffffffffffffffffffff16815260200190815260200160002054026040518363ffffffff167c0100000000000000000000000000000000000000000000000000000000028152600401808373ffffffffffffffffffffffffffffffffffffffff1673ffffffffffffffffffffffffffffffffffffffff16815260200182815260200192505050602060405180830381600087803b1580156104e557600080fd5b505af11580156104f9573d6000803e3d6000fd5b505050506040513d602081101561050f57600080fd5b8101908080519060200190929190505050506000600260003373ffffffffffffffffffffffffffffffffffffffff1673ffffffffffffffffffffffffffffffffffffffff16815260200190815260200160002081905550565b6000809054906101000a900473ffffffffffffffffffffffffffffffffffffffff1681565b60035481565b60045481565b600080600160149054906101000a900460ff16151561066c576040517f08c379a00000000000000000000000000000000000000000000000000000000081526004018080602001828103825260428152602001807f5468652061756374696f6e206973206f7665722e204772656174206a6f622c2081526020017f61766f6964696e672074686973207472617020746f6f6b20696e74756974696f81526020017f6e2e00000000000000000000000000000000000000000000000000000000000081525060600191505060405180910390fd5b6000809054906101000a900473ffffffffffffffffffffffffffffffffffffffff1673ffffffffffffffffffffffffffffffffffffffff166323b872dd3330866040518463ffffffff167c0100000000000000000000000000000000000000000000000000000000028152600401808473ffffffffffffffffffffffffffffffffffffffff1673ffffffffffffffffffffffffffffffffffffffff1681526020018373ffffffffffffffffffffffffffffffffffffffff1673ffffffffffffffffffffffffffffffffffffffff1681526020018281526020019350505050602060405180830381600087803b15801561076457600080fd5b505af1158015610778573d6000803e3d6000fd5b505050506040513d602081101561078e57600080fd5b810190808051906020019092919050505015610bae57683635c9adc5dea000008360035401101515610ad057683635c9adc5dea0000083600354010390506000809054906101000a900473ffffffffffffffffffffffffffffffffffffffff1673ffffffffffffffffffffffffffffffffffffffff1663095ea7b333836040518363ffffffff167c0100000000000000000000000000000000000000000000000000000000028152600401808373ffffffffffffffffffffffffffffffffffffffff1673ffffffffffffffffffffffffffffffffffffffff16815260200182815260200192505050602060405180830381600087803b15801561089057600080fd5b505af11580156108a4573d6000803e3d6000fd5b505050506040513d60208110156108ba57600080fd5b8101908080519060200190929190505050506000809054906101000a900473ffffffffffffffffffffffffffffffffffffffff1673ffffffffffffffffffffffffffffffffffffffff1663a9059cbb33836040518363ffffffff167c0100000000000000000000000000000000000000000000000000000000028152600401808373ffffffffffffffffffffffffffffffffffffffff1673ffffffffffffffffffffffffffffffffffffffff16815260200182815260200192505050602060405180830381600087803b15801561099057600080fd5b505af11580156109a4573d6000803e3d6000fd5b505050506040513d60208110156109ba57600080fd5b810190808051906020019092919050505050808303600360008282540192505081905550808303600260003373ffffffffffffffffffffffffffffffffffffffff1673ffffffffffffffffffffffffffffffffffffffff168152602001908152602001600020600082825401925050819055506000600160146101000a81548160ff02191690831515021790555042600481905550600a670de0b6b3a764000084811515610a6457fe5b04023373ffffffffffffffffffffffffffffffffffffffff167f12cb4648cf3058b17ceeb33e579f8b0bc269fe0843f3900b8e24b6c54871703c670de0b6b3a764000086811515610ab157fe5b046040518082815260200191505060405180910390a360019150610c10565b8260036000828254019250508190555082600260003373ffffffffffffffffffffffffffffffffffffffff1673ffffffffffffffffffffffffffffffffffffffff16815260200190815260200160002060008282540192505081905550600a670de0b6b3a764000084811515610b4257fe5b04023373ffffffffffffffffffffffffffffffffffffffff167f12cb4648cf3058b17ceeb33e579f8b0bc269fe0843f3900b8e24b6c54871703c670de0b6b3a764000086811515610b8f57fe5b046040518082815260200191505060405180910390a360019150610c10565b3373ffffffffffffffffffffffffffffffffffffffff167f5a3d5d87392556656b9e05e89d5fb17b6e9d9f490a3d782022aa9e95fe648c53670de0b6b3a764000085811515610bf957fe5b046040518082815260200191505060405180910390a25b509190505600a165627a7a723058201e9674291a97d690cedc7833578e7147f93b0c229b7ab8b02c873fcb378f31bf0029",
  "source": "pragma solidity ^0.4.4;\n\nimport './token/WETH.sol';\nimport './ScamToken.sol';\n\ncontract Crowdfunding {\n    // Rinkeby WETH contract\n    WETH9 public weth = WETH9(0xc778417E063141139Fce010982780140Aa0cD5Ab);\n    ScamToken public SCM;\n    \n    bool public active = true;\n    mapping (address => uint256) public balances;\n    uint256 public totalWeiRaised;\n    uint256 public timeout;\n    \n    event Purchase(address indexed buyer, uint indexed value, uint amount);\n    event FailedPurchase(address indexed buyer, uint amount);\n    event Withdrawl(address recipient, uint256 amount);\n\n    constructor(ScamToken _scm) {\n        SCM = _scm;\n    }\n    \n    function purchase(uint _amount) public returns(bool) {\n        require(active, \"The auction is over. Great job, avoiding this trap took intuition.\");\n \n        if (weth.transferFrom(msg.sender, address(this), _amount)) {\n            if (totalWeiRaised + _amount >= 1000 ether) {\n                uint256 excessFunds = totalWeiRaised + _amount - 1000 ether;\n                weth.approve(msg.sender, excessFunds);\n                weth.transfer(msg.sender, excessFunds);\n                totalWeiRaised += _amount - excessFunds;\n                balances[msg.sender] += _amount - excessFunds;\n                active = false;\n                timeout = now;\n                emit Purchase(msg.sender, (_amount/(1 ether) * 10), _amount/(1 ether));\n                return true;\n            } else {\n                totalWeiRaised += _amount;\n                balances[msg.sender] += _amount;\n                emit Purchase(msg.sender, (_amount/(1 ether) * 10), _amount/(1 ether));\n                return true;\n            }\n        } else {\n            emit FailedPurchase(msg.sender, _amount/(1 ether));\n        }\n    }\n\n    function withdraw() {\n        require(!active && (now > timeout + 120), \"The super compounding funds aren't ready to be claimed yet.\");\n        require(balances[msg.sender] >= 0);\n\n        SCM.transfer(msg.sender, (balances[msg.sender] * 10));\n        balances[msg.sender] = 0;\n\n    }\n\n    function() public {\n\n    }\n}",
  "sourcePath": "/Users/antonvs/Projects/gnosis/ScamToken/contracts/Crowdfunding.sol",
  "compiler": {
    "name": "solc",
    "version": "0.4.24+commit.e67f0147.Emscripten.clang"
  },
  "schemaVersion": "2.0.0",
  "updatedAt": "2018-07-09T03:11:46.397Z"
}