{
  "contractName": "Crowdfunding",
  "abi": [
    {
      "payable": false,
      "stateMutability": "nonpayable",
      "type": "fallback"
    },
    {
      "constant": false,
      "inputs": [
        {
          "name": "x",
          "type": "uint256"
        }
      ],
      "name": "purchase",
      "outputs": [],
      "payable": false,
      "stateMutability": "nonpayable",
      "type": "function"
    }
  ],
  "bytecode": "0x608060405260016000806101000a81548160ff0219169083151502179055506000600260006101000a81548160ff021916908360ff16021790555034801561004657600080fd5b5060c3806100556000396000f300608060405260043610603f576000357c0100000000000000000000000000000000000000000000000000000000900463ffffffff168063efef39a1146050575b348015604a57600080fd5b50600080fd5b348015605b57600080fd5b50607860048036038101908080359060200190929190505050607a565b005b60008060006101000a81548160ff021916908315150217905550505600a165627a7a723058204b2fe07225b5fd41f0f428c805eb50282b5f11b4b6f8a2f1362d721868f44ca30029",
  "source": "pragma solidity ^0.4.4;\n\ncontract Crowdfunding {\n    bool active = true;\n    mapping (address => uint256) balances;\n    uint8 totalWETH = 0;\n\n    function purchase(uint256 x) public {\n        active = false;\n    }\n\n    function() {\n        revert();\n    }\n}",
  "sourcePath": "/Users/antonvs/Projects/gnosis/Onboarding-ICO/contracts/Crowdfunding.sol",
  "compiler": {
    "name": "solc",
    "version": "0.4.24+commit.e67f0147.Emscripten.clang"
  },
  "schemaVersion": "2.0.0",
  "updatedAt": "2018-07-02T12:32:21.079Z"
}