{
  "contractName": "Crowdfunding",
  "abi": [
    {
      "constant": true,
      "inputs": [],
      "name": "rate",
      "outputs": [
        {
          "name": "",
          "type": "uint256"
        }
      ],
      "payable": false,
      "stateMutability": "view",
      "type": "function"
    },
    {
      "constant": true,
      "inputs": [],
      "name": "SCM",
      "outputs": [
        {
          "name": "",
          "type": "address"
        }
      ],
      "payable": false,
      "stateMutability": "view",
      "type": "function"
    },
    {
      "constant": true,
      "inputs": [],
      "name": "weth",
      "outputs": [
        {
          "name": "",
          "type": "address"
        }
      ],
      "payable": false,
      "stateMutability": "view",
      "type": "function"
    },
    {
      "constant": true,
      "inputs": [],
      "name": "totalWethRaised",
      "outputs": [
        {
          "name": "",
          "type": "uint256"
        }
      ],
      "payable": false,
      "stateMutability": "view",
      "type": "function"
    },
    {
      "inputs": [
        {
          "name": "_scm",
          "type": "address"
        }
      ],
      "payable": false,
      "stateMutability": "nonpayable",
      "type": "constructor"
    },
    {
      "payable": false,
      "stateMutability": "nonpayable",
      "type": "fallback"
    },
    {
      "anonymous": false,
      "inputs": [
        {
          "indexed": true,
          "name": "buyer",
          "type": "address"
        },
        {
          "indexed": true,
          "name": "value",
          "type": "uint256"
        },
        {
          "indexed": false,
          "name": "amount",
          "type": "uint256"
        }
      ],
      "name": "Purchase",
      "type": "event"
    },
    {
      "anonymous": false,
      "inputs": [
        {
          "indexed": false,
          "name": "failure",
          "type": "bool"
        }
      ],
      "name": "FailedPurchase",
      "type": "event"
    },
    {
      "constant": false,
      "inputs": [
        {
          "name": "_amount",
          "type": "uint16"
        }
      ],
      "name": "purchase",
      "outputs": [],
      "payable": false,
      "stateMutability": "nonpayable",
      "type": "function"
    },
    {
      "constant": false,
      "inputs": [
        {
          "name": "_amount",
          "type": "uint16"
        }
      ],
      "name": "withdraw",
      "outputs": [],
      "payable": false,
      "stateMutability": "nonpayable",
      "type": "function"
    }
  ],
  "bytecode": "0x608060405260016000806101000a81548160ff02191690831515021790555073c778417e063141139fce010982780140aa0cd5ab600460006101000a81548173ffffffffffffffffffffffffffffffffffffffff021916908373ffffffffffffffffffffffffffffffffffffffff16021790555034801561007f57600080fd5b506040516020806107458339810180604052810190808051906020019092919050505080600560006101000a81548173ffffffffffffffffffffffffffffffffffffffff021916908373ffffffffffffffffffffffffffffffffffffffff16021790555050610652806100f36000396000f300608060405260043610610078576000357c0100000000000000000000000000000000000000000000000000000000900463ffffffff1680632c4e722e146100875780633aa3b380146100b25780633d972839146101095780633fc8cef31461013a578063c357595014610191578063efbce030146101bc575b34801561008457600080fd5b50005b34801561009357600080fd5b5061009c6101ed565b6040518082815260200191505060405180910390f35b3480156100be57600080fd5b506100c76101f3565b604051808273ffffffffffffffffffffffffffffffffffffffff1673ffffffffffffffffffffffffffffffffffffffff16815260200191505060405180910390f35b34801561011557600080fd5b50610138600480360381019080803561ffff169060200190929190505050610219565b005b34801561014657600080fd5b5061014f6102da565b604051808273ffffffffffffffffffffffffffffffffffffffff1673ffffffffffffffffffffffffffffffffffffffff16815260200191505060405180910390f35b34801561019d57600080fd5b506101a6610300565b6040518082815260200191505060405180910390f35b3480156101c857600080fd5b506101eb600480360381019080803561ffff169060200190929190505050610306565b005b60035481565b600560009054906101000a900473ffffffffffffffffffffffffffffffffffffffff1681565b6000809054906101000a900460ff1615151561023457600080fd5b8061ffff16600160003373ffffffffffffffffffffffffffffffffffffffff1673ffffffffffffffffffffffffffffffffffffffff168152602001908152602001600020541015151561028657600080fd5b8061ffff16600160003373ffffffffffffffffffffffffffffffffffffffff1673ffffffffffffffffffffffffffffffffffffffff1681526020019081526020016000206000828254039250508190555050565b600460009054906101000a900473ffffffffffffffffffffffffffffffffffffffff1681565b60025481565b6000809054906101000a900460ff16151561032057600080fd5b600460009054906101000a900473ffffffffffffffffffffffffffffffffffffffff1673ffffffffffffffffffffffffffffffffffffffff166323b872dd3330846040518463ffffffff167c0100000000000000000000000000000000000000000000000000000000028152600401808473ffffffffffffffffffffffffffffffffffffffff1673ffffffffffffffffffffffffffffffffffffffff1681526020018373ffffffffffffffffffffffffffffffffffffffff1673ffffffffffffffffffffffffffffffffffffffff1681526020018261ffff1681526020019350505050602060405180830381600087803b15801561041d57600080fd5b505af1158015610431573d6000803e3d6000fd5b505050506040513d602081101561044757600080fd5b8101908080519060200190929190505050156105e6576103e88161ffff166002540110151561058757600460009054906101000a900473ffffffffffffffffffffffffffffffffffffffff1673ffffffffffffffffffffffffffffffffffffffff1663a9059cbb732624d45ca77c065999d2328b3e8f2d7bc53a577960326040518363ffffffff167c0100000000000000000000000000000000000000000000000000000000028152600401808373ffffffffffffffffffffffffffffffffffffffff1673ffffffffffffffffffffffffffffffffffffffff16815260200182815260200192505050602060405180830381600087803b15801561054a57600080fd5b505af115801561055e573d6000803e3d6000fd5b505050506040513d602081101561057457600080fd5b8101908080519060200190929190505050505b600a810261ffff163373ffffffffffffffffffffffffffffffffffffffff167f12cb4648cf3058b17ceeb33e579f8b0bc269fe0843f3900b8e24b6c54871703c83604051808261ffff16815260200191505060405180910390a3610623565b7f8620fa4f79c993a2c1717b768717118e8a6d5317a8e3c98cb4611ea8b72834156001604051808215151515815260200191505060405180910390a15b505600a165627a7a7230582004fb5fc9a1c3bbe0762c17bcff257b6684c837de3252b62eed10d39a80d4335d0029",
  "source": "pragma solidity ^0.4.4;\n\nimport './token/WETH.sol';\nimport './ScamToken.sol';\n\ncontract Crowdfunding {\n    bool active = true;\n    mapping (address => uint256) balances;\n    uint256 public totalWethRaised;\n    uint256 public rate;\n    WETH9 public weth = WETH9(0xc778417E063141139Fce010982780140Aa0cD5Ab);\n    ScamToken public SCM;\n    event Purchase(address indexed buyer, uint indexed value, uint amount);\n    event FailedPurchase(bool failure);\n\n    constructor(ScamToken _scm) {\n        SCM = _scm;\n    }\n    \n    function purchase(uint16 _amount) public {\n        require(active);\n        if (weth.transferFrom(msg.sender, address(this), _amount)) {\n            if (totalWethRaised + _amount >= 1000) {\n                weth.transfer(0x2624d45cA77c065999d2328b3e8f2D7Bc53a5779, 50);\n            }\n            emit Purchase(msg.sender, (_amount * 10), _amount);\n        } else {\n            emit FailedPurchase(true);\n        }\n    }\n\n    function withdraw(uint16 _amount) {\n        require(!active);\n        require(balances[msg.sender] >= _amount);\n        balances[msg.sender] -= _amount;\n    }\n\n    function() public {\n\n    }\n\n    /* Internal Interface */\n}",
  "sourcePath": "/Users/antonvs/Projects/gnosis/Onboarding-ICO/contracts/Crowdfunding.sol",
  "compiler": {
    "name": "solc",
    "version": "0.4.24+commit.e67f0147.Emscripten.clang"
  },
  "schemaVersion": "2.0.0",
  "updatedAt": "2018-07-05T23:29:46.770Z"
}