{
  "contractName": "Factory",
  "abi": [
    {
      "constant": true,
      "inputs": [
        {
          "name": "",
          "type": "uint256"
        }
      ],
      "name": "newContracts",
      "outputs": [
        {
          "name": "",
          "type": "address"
        }
      ],
      "payable": false,
      "stateMutability": "view",
      "type": "function"
    },
    {
      "constant": false,
      "inputs": [
        {
          "name": "name",
          "type": "bytes32"
        }
      ],
      "name": "createContract",
      "outputs": [],
      "payable": false,
      "stateMutability": "nonpayable",
      "type": "function"
    },
    {
      "constant": true,
      "inputs": [],
      "name": "getnewContracts",
      "outputs": [
        {
          "name": "",
          "type": "address[]"
        }
      ],
      "payable": false,
      "stateMutability": "view",
      "type": "function"
    },
    {
      "constant": false,
      "inputs": [],
      "name": "depositEther",
      "outputs": [],
      "payable": true,
      "stateMutability": "payable",
      "type": "function"
    },
    {
      "constant": true,
      "inputs": [],
      "name": "returnEther",
      "outputs": [
        {
          "name": "",
          "type": "uint256"
        }
      ],
      "payable": false,
      "stateMutability": "view",
      "type": "function"
    }
  ],
  "bytecode": "0x608060405234801561001057600080fd5b50610468806100206000396000f30060806040526004361061006d576000357c0100000000000000000000000000000000000000000000000000000000900463ffffffff1680633f811b801461007257806392f79394146100a357806398ea5fca1461010f578063bd21ad1914610119578063ebb6dc3a14610186575b600080fd5b34801561007e57600080fd5b506100a160048036038101908080356000191690602001909291905050506101b1565b005b3480156100af57600080fd5b506100b8610257565b6040518080602001828103825283818151815260200191508051906020019060200280838360005b838110156100fb5780820151818401526020810190506100e0565b505050509050019250505060405180910390f35b6101176102e5565b005b34801561012557600080fd5b50610144600480360381019080803590602001909291905050506102f2565b604051808273ffffffffffffffffffffffffffffffffffffffff1673ffffffffffffffffffffffffffffffffffffffff16815260200191505060405180910390f35b34801561019257600080fd5b5061019b610330565b6040518082815260200191505060405180910390f35b6000816101bc61033a565b808260001916600019168152602001915050604051809103906000f0801580156101ea573d6000803e3d6000fd5b50905060008190806001815401808255809150509060018203906000526020600020016000909192909190916101000a81548173ffffffffffffffffffffffffffffffffffffffff021916908373ffffffffffffffffffffffffffffffffffffffff160217905550505050565b606060008054806020026020016040519081016040528092919081815260200182805480156102db57602002820191906000526020600020905b8160009054906101000a900473ffffffffffffffffffffffffffffffffffffffff1673ffffffffffffffffffffffffffffffffffffffff1681526020019060010190808311610291575b5050505050905090565b3460015401600181905550565b60008181548110151561030157fe5b906000526020600020016000915054906101000a900473ffffffffffffffffffffffffffffffffffffffff1681565b6000600154905090565b60405160f38061034a833901905600608060405234801561001057600080fd5b506040516020806100f38339810180604052810190808051906020019092919050505080600081600019169055505060a68061004d6000396000f300608060405260043610603f576000357c0100000000000000000000000000000000000000000000000000000000900463ffffffff1680638052474d146044575b600080fd5b348015604f57600080fd5b5060566074565b60405180826000191660001916815260200191505060405180910390f35b600054815600a165627a7a72305820db83f9c183a8aa396f75e23404c7d821163cf46c7ffb8e45dbb073df4786fc950029a165627a7a72305820272253cdfd0d53a589b516e6a4cc529359f8396f04cc7d768a99e81c337caba70029",
  "source": "contract Factory {\n    address[] public newContracts;\n    uint ETH;\n\n    function createContract (bytes32 name) {\n        address newContract = new Contract(name);\n        newContracts.push(newContract);\n       \n        \n    } \n    \n    function getnewContracts() view returns (address[]) {\n        return newContracts;\n    }\n    \n    function depositEther() payable {\n        ETH = ETH + msg.value;\n    }\n    \n    function returnEther() view returns (uint) {\n        return ETH;\n    }\n    \n    \n}\n\ncontract Contract {\n    bytes32 public Name;\n\n    function Contract (bytes32 name) {\n        Name = name;\n    }\n}",
  "sourcePath": "/Users/antonvs/Projects/gnosis/Onboarding-ICO/contracts/FactorySample/ContractFactory.sol",
  "compiler": {
    "name": "solc",
    "version": "0.4.24+commit.e67f0147.Emscripten.clang"
  },
  "schemaVersion": "2.0.0",
  "updatedAt": "2018-06-29T06:33:53.970Z"
}