{
  "contractName": "Factory",
  "abi": [
    {
      "constant": true,
      "inputs": [],
      "name": "newContract",
      "outputs": [
        {
          "name": "",
          "type": "address"
        }
      ],
      "payable": false,
      "stateMutability": "view",
      "type": "function"
    },
    {
      "constant": true,
      "inputs": [
        {
          "name": "",
          "type": "uint256"
        }
      ],
      "name": "newContracts",
      "outputs": [
        {
          "name": "",
          "type": "address"
        }
      ],
      "payable": false,
      "stateMutability": "view",
      "type": "function"
    },
    {
      "payable": true,
      "stateMutability": "payable",
      "type": "fallback"
    },
    {
      "anonymous": false,
      "inputs": [
        {
          "indexed": true,
          "name": "depositor",
          "type": "address"
        },
        {
          "indexed": false,
          "name": "value",
          "type": "uint256"
        }
      ],
      "name": "Deposit",
      "type": "event"
    },
    {
      "constant": false,
      "inputs": [
        {
          "name": "name",
          "type": "string"
        }
      ],
      "name": "createContract",
      "outputs": [],
      "payable": false,
      "stateMutability": "nonpayable",
      "type": "function"
    },
    {
      "constant": true,
      "inputs": [],
      "name": "firstContractBalance",
      "outputs": [
        {
          "name": "",
          "type": "uint256"
        }
      ],
      "payable": false,
      "stateMutability": "view",
      "type": "function"
    }
  ],
  "bytecode": "0x608060405234801561001057600080fd5b506107a5806100206000396000f300608060405260043610610062576000357c0100000000000000000000000000000000000000000000000000000000900463ffffffff16806318f80bb9146100bc5780633030367a146101255780634313b53114610150578063bd21ad19146101a7575b60003411156100ba573373ffffffffffffffffffffffffffffffffffffffff167fe1fffcc4923d04b559f4d29a8bfc6cda04eb5b0d3c460751c2402c5c5cc9109c346040518082815260200191505060405180910390a25b005b3480156100c857600080fd5b50610123600480360381019080803590602001908201803590602001908080601f0160208091040260200160405190810160405280939291908181526020018383808284378201915050505050509192919290505050610214565b005b34801561013157600080fd5b5061013a610374565b6040518082815260200191505060405180910390f35b34801561015c57600080fd5b506101656103b5565b604051808273ffffffffffffffffffffffffffffffffffffffff1673ffffffffffffffffffffffffffffffffffffffff16815260200191505060405180910390f35b3480156101b357600080fd5b506101d2600480360381019080803590602001909291905050506103db565b604051808273ffffffffffffffffffffffffffffffffffffffff1673ffffffffffffffffffffffffffffffffffffffff16815260200191505060405180910390f35b8061021d610419565b8080602001828103825283818151815260200191508051906020019080838360005b8381101561025a57808201518184015260208101905061023f565b50505050905090810190601f1680156102875780820380516001836020036101000a031916815260200191505b5092505050604051809103906000f0801580156102a8573d6000803e3d6000fd5b50600160006101000a81548173ffffffffffffffffffffffffffffffffffffffff021916908373ffffffffffffffffffffffffffffffffffffffff1602179055506000600160009054906101000a900473ffffffffffffffffffffffffffffffffffffffff1690806001815401808255809150509060018203906000526020600020016000909192909190916101000a81548173ffffffffffffffffffffffffffffffffffffffff021916908373ffffffffffffffffffffffffffffffffffffffff1602179055505050565b6000600160009054906101000a900473ffffffffffffffffffffffffffffffffffffffff1673ffffffffffffffffffffffffffffffffffffffff1631905090565b600160009054906101000a900473ffffffffffffffffffffffffffffffffffffffff1681565b6000818154811015156103ea57fe5b906000526020600020016000915054906101000a900473ffffffffffffffffffffffffffffffffffffffff1681565b6040516103508061042a833901905600608060405234801561001057600080fd5b50604051610350380380610350833981018060405281019080805182019291905050508060009080519060200190610049929190610050565b50506100f5565b828054600181600116156101000203166002900490600052602060002090601f016020900481019282601f1061009157805160ff19168380011785556100bf565b828001600101855582156100bf579182015b828111156100be5782518255916020019190600101906100a3565b5b5090506100cc91906100d0565b5090565b6100f291905b808211156100ee5760008160009055506001016100d6565b5090565b90565b61024c806101046000396000f300608060405260043610610057576000357c0100000000000000000000000000000000000000000000000000000000900463ffffffff1680638052474d1461005c5780638322fff2146100ec57806398ea5fca14610117575b600080fd5b34801561006857600080fd5b50610071610121565b6040518080602001828103825283818151815260200191508051906020019080838360005b838110156100b1578082015181840152602081019050610096565b50505050905090810190601f1680156100de5780820380516001836020036101000a031916815260200191505b509250505060405180910390f35b3480156100f857600080fd5b506101016101bf565b6040518082815260200191505060405180910390f35b61011f6101c5565b005b60008054600181600116156101000203166002900480601f0160208091040260200160405190810160405280929190818152602001828054600181600116156101000203166002900480156101b75780601f1061018c576101008083540402835291602001916101b7565b820191906000526020600020905b81548152906001019060200180831161019a57829003601f168201915b505050505081565b60015481565b34600154016001819055503373ffffffffffffffffffffffffffffffffffffffff167f32da008ef0adb5b8bb2978371e660b5698809318f802d847d32e722889ba0367346040518082815260200191505060405180910390a25600a165627a7a72305820b6d81c824a72a47144f2aece6e4d4c5a5474e799a68a65c1f1e81ab26c8242630029a165627a7a723058206bb490f1e8bc80cdf9e51c31bbef504b04355187b09ff21263b4dc5340c51f330029",
  "source": "pragma solidity ^0.4.4;\n\n// Contract Were Importing with the name\ncontract Contract {\n    string public Name;\n    uint256 public ETH;\n\n    event DepositMoney(address indexed _owner, uint256 _value);\n\n    function Contract (string trueName) {\n        Name = trueName;\n    }\n    \n    function depositEther() public payable {\n        ETH = ETH + msg.value;\n        emit DepositMoney(msg.sender, msg.value);\n    }\n}\n\ncontract Factory {\n    address[] public newContracts;\n    Contract public newContract;\n\n    event Deposit(address indexed depositor, uint256 value);\n\n    function createContract (string name) {\n        newContract = new Contract(name);\n        newContracts.push(newContract);\n    }\n\n    function firstContractBalance() view returns (uint) {\n        return newContract.balance;\n    }\n\n    function() payable {\n        if (msg.value > 0) {\n            emit Deposit(msg.sender, msg.value);\n        }\n    }\n}\n",
  "sourcePath": "/Users/antonvs/Projects/gnosis/Onboarding-ICO/contracts/tinkering/ContractFactory.sol",
  "compiler": {
    "name": "solc",
    "version": "0.4.24+commit.e67f0147.Emscripten.clang"
  },
  "schemaVersion": "2.0.0",
  "updatedAt": "2018-07-01T06:01:56.550Z"
}