{
  "contractName": "LimitedBalanceContract",
  "abi": [
    {
      "constant": true,
      "inputs": [],
      "name": "difficulty",
      "outputs": [
        {
          "name": "",
          "type": "uint256"
        }
      ],
      "payable": false,
      "stateMutability": "view",
      "type": "function"
    },
    {
      "constant": true,
      "inputs": [],
      "name": "limit",
      "outputs": [
        {
          "name": "",
          "type": "uint256"
        }
      ],
      "payable": false,
      "stateMutability": "view",
      "type": "function"
    },
    {
      "constant": true,
      "inputs": [],
      "name": "balance",
      "outputs": [
        {
          "name": "",
          "type": "uint256"
        }
      ],
      "payable": false,
      "stateMutability": "view",
      "type": "function"
    },
    {
      "inputs": [
        {
          "name": "_name",
          "type": "string"
        }
      ],
      "payable": false,
      "stateMutability": "nonpayable",
      "type": "constructor"
    },
    {
      "payable": true,
      "stateMutability": "payable",
      "type": "fallback"
    },
    {
      "constant": true,
      "inputs": [],
      "name": "getBalance",
      "outputs": [
        {
          "name": "",
          "type": "uint256"
        }
      ],
      "payable": false,
      "stateMutability": "view",
      "type": "function"
    }
  ],
  "bytecode": "0x60806040523073ffffffffffffffffffffffffffffffffffffffff16316002554460035534801561002f57600080fd5b506040516102c23803806102c283398101806040528101908080518201929190505050603280600081905550508060019080519060200190610072929190610079565b505061011e565b828054600181600116156101000203166002900490600052602060002090601f016020900481019282601f106100ba57805160ff19168380011785556100e8565b828001600101855582156100e8579182015b828111156100e75782518255916020019190600101906100cc565b5b5090506100f591906100f9565b5090565b61011b91905b808211156101175760008160009055506001016100ff565b5090565b90565b6101958061012d6000396000f300608060405260043610610062576000357c0100000000000000000000000000000000000000000000000000000000900463ffffffff16806312065fe01461008c57806319cae462146100b7578063a4d66daf146100e2578063b69ef8a81461010d575b6000543073ffffffffffffffffffffffffffffffffffffffff16311115151561008a57600080fd5b005b34801561009857600080fd5b506100a1610138565b6040518082815260200191505060405180910390f35b3480156100c357600080fd5b506100cc610157565b6040518082815260200191505060405180910390f35b3480156100ee57600080fd5b506100f761015d565b6040518082815260200191505060405180910390f35b34801561011957600080fd5b50610122610163565b6040518082815260200191505060405180910390f35b60003073ffffffffffffffffffffffffffffffffffffffff1631905090565b60035481565b60005481565b600254815600a165627a7a723058207dd6e51baa19ed21c449d408b6bb4e4c140de19d77acb4f6d872226c668191810029",
  "source": "pragma solidity ^0.4.4;\nimport \"../../node_modules/openzeppelin-solidity/contracts/LimitBalance.sol\";\n\ncontract LimitedBalanceContract is LimitBalance(50) {\n    string name;\n    uint256 public balance = address(this).balance;\n    uint public difficulty = block.difficulty;\n    \n    constructor(string _name) public {\n        name = _name;\n    }\n\n    function() external payable limitedPayable {\n\n    }\n    \n    function getBalance() public view returns (uint) {\n        return address(this).balance;\n    }\n}",
  "sourcePath": "/Users/antonvs/Projects/gnosis/ScamToken/contracts/tinkering/LimitedBalanceContract.sol",
  "compiler": {
    "name": "solc",
    "version": "0.4.25+commit.59dbf8f1.Emscripten.clang"
  },
  "schemaVersion": "2.0.2",
  "updatedAt": "2019-01-24T04:49:03.811Z"
}