{
  "contractName": "Math",
  "abi": [
    {
      "constant": true,
      "inputs": [],
      "name": "LN2",
      "outputs": [
        {
          "name": "",
          "type": "uint256"
        }
      ],
      "payable": false,
      "stateMutability": "view",
      "type": "function"
    },
    {
      "constant": true,
      "inputs": [],
      "name": "LOG2_E",
      "outputs": [
        {
          "name": "",
          "type": "uint256"
        }
      ],
      "payable": false,
      "stateMutability": "view",
      "type": "function"
    },
    {
      "constant": true,
      "inputs": [],
      "name": "ONE",
      "outputs": [
        {
          "name": "",
          "type": "uint256"
        }
      ],
      "payable": false,
      "stateMutability": "view",
      "type": "function"
    },
    {
      "constant": true,
      "inputs": [
        {
          "name": "x",
          "type": "int256"
        }
      ],
      "name": "exp",
      "outputs": [
        {
          "name": "",
          "type": "uint256"
        }
      ],
      "payable": false,
      "stateMutability": "view",
      "type": "function"
    },
    {
      "constant": true,
      "inputs": [
        {
          "name": "x",
          "type": "uint256"
        }
      ],
      "name": "ln",
      "outputs": [
        {
          "name": "",
          "type": "int256"
        }
      ],
      "payable": false,
      "stateMutability": "view",
      "type": "function"
    },
    {
      "constant": true,
      "inputs": [
        {
          "name": "x",
          "type": "uint256"
        }
      ],
      "name": "floorLog2",
      "outputs": [
        {
          "name": "lo",
          "type": "int256"
        }
      ],
      "payable": false,
      "stateMutability": "view",
      "type": "function"
    },
    {
      "constant": true,
      "inputs": [
        {
          "name": "nums",
          "type": "int256[]"
        }
      ],
      "name": "max",
      "outputs": [
        {
          "name": "max",
          "type": "int256"
        }
      ],
      "payable": false,
      "stateMutability": "view",
      "type": "function"
    },
    {
      "constant": true,
      "inputs": [
        {
          "name": "a",
          "type": "uint256"
        },
        {
          "name": "b",
          "type": "uint256"
        }
      ],
      "name": "safeToAdd",
      "outputs": [
        {
          "name": "",
          "type": "bool"
        }
      ],
      "payable": false,
      "stateMutability": "view",
      "type": "function"
    },
    {
      "constant": true,
      "inputs": [
        {
          "name": "a",
          "type": "int256"
        },
        {
          "name": "b",
          "type": "int256"
        }
      ],
      "name": "safeToAdd",
      "outputs": [
        {
          "name": "",
          "type": "bool"
        }
      ],
      "payable": false,
      "stateMutability": "view",
      "type": "function"
    },
    {
      "constant": true,
      "inputs": [
        {
          "name": "a",
          "type": "uint256"
        },
        {
          "name": "b",
          "type": "uint256"
        }
      ],
      "name": "safeToSub",
      "outputs": [
        {
          "name": "",
          "type": "bool"
        }
      ],
      "payable": false,
      "stateMutability": "view",
      "type": "function"
    },
    {
      "constant": true,
      "inputs": [
        {
          "name": "a",
          "type": "int256"
        },
        {
          "name": "b",
          "type": "int256"
        }
      ],
      "name": "safeToSub",
      "outputs": [
        {
          "name": "",
          "type": "bool"
        }
      ],
      "payable": false,
      "stateMutability": "view",
      "type": "function"
    },
    {
      "constant": true,
      "inputs": [
        {
          "name": "a",
          "type": "int256"
        },
        {
          "name": "b",
          "type": "int256"
        }
      ],
      "name": "safeToMul",
      "outputs": [
        {
          "name": "",
          "type": "bool"
        }
      ],
      "payable": false,
      "stateMutability": "view",
      "type": "function"
    },
    {
      "constant": true,
      "inputs": [
        {
          "name": "a",
          "type": "uint256"
        },
        {
          "name": "b",
          "type": "uint256"
        }
      ],
      "name": "safeToMul",
      "outputs": [
        {
          "name": "",
          "type": "bool"
        }
      ],
      "payable": false,
      "stateMutability": "view",
      "type": "function"
    },
    {
      "constant": true,
      "inputs": [
        {
          "name": "a",
          "type": "int256"
        },
        {
          "name": "b",
          "type": "int256"
        }
      ],
      "name": "add",
      "outputs": [
        {
          "name": "",
          "type": "int256"
        }
      ],
      "payable": false,
      "stateMutability": "view",
      "type": "function"
    },
    {
      "constant": true,
      "inputs": [
        {
          "name": "a",
          "type": "uint256"
        },
        {
          "name": "b",
          "type": "uint256"
        }
      ],
      "name": "add",
      "outputs": [
        {
          "name": "",
          "type": "uint256"
        }
      ],
      "payable": false,
      "stateMutability": "view",
      "type": "function"
    },
    {
      "constant": true,
      "inputs": [
        {
          "name": "a",
          "type": "int256"
        },
        {
          "name": "b",
          "type": "int256"
        }
      ],
      "name": "sub",
      "outputs": [
        {
          "name": "",
          "type": "int256"
        }
      ],
      "payable": false,
      "stateMutability": "view",
      "type": "function"
    },
    {
      "constant": true,
      "inputs": [
        {
          "name": "a",
          "type": "uint256"
        },
        {
          "name": "b",
          "type": "uint256"
        }
      ],
      "name": "sub",
      "outputs": [
        {
          "name": "",
          "type": "uint256"
        }
      ],
      "payable": false,
      "stateMutability": "view",
      "type": "function"
    },
    {
      "constant": true,
      "inputs": [
        {
          "name": "a",
          "type": "uint256"
        },
        {
          "name": "b",
          "type": "uint256"
        }
      ],
      "name": "mul",
      "outputs": [
        {
          "name": "",
          "type": "uint256"
        }
      ],
      "payable": false,
      "stateMutability": "view",
      "type": "function"
    },
    {
      "constant": true,
      "inputs": [
        {
          "name": "a",
          "type": "int256"
        },
        {
          "name": "b",
          "type": "int256"
        }
      ],
      "name": "mul",
      "outputs": [
        {
          "name": "",
          "type": "int256"
        }
      ],
      "payable": false,
      "stateMutability": "view",
      "type": "function"
    }
  ],
  "bytecode": "0x611168610030600b82828239805160001a6073146000811461002057610022565bfe5b5030600052607381538281f300730000000000000000000000000000000000000000301460806040526004361061011e576000357c0100000000000000000000000000000000000000000000000000000000900463ffffffff16806302780677146101235780631f47ba291461014157806324902e241461018357806324d4e90a146101a157806345b8bafc146101d55780634e30a66c14610209578063771602f71461024b5780639030434114610289578063a5f3c23b146102cb578063adefc37b14610309578063b67d77c514610347578063bbe93d9114610385578063c2ee3a08146103c3578063c8a4ac9c146103e1578063cb10fa761461041f578063ccc1381414610461578063dc08a80b146104ce578063e31c71c414610510578063e46751e314610552575b600080fd5b61012b610586565b6040518082815260200191505060405180910390f35b6101696004803603810190808035906020019092919080359060200190929190505050610592565b604051808215151515815260200191505060405180910390f35b61018b6105b6565b6040518082815260200191505060405180910390f35b6101bf600480360381019080803590602001909291905050506105c3565b6040518082815260200191505060405180910390f35b6101f360048036038101908080359060200190929190505050610967565b6040518082815260200191505060405180910390f35b6102316004803603810190808035906020019092919080359060200190929190505050610a1e565b604051808215151515815260200191505060405180910390f35b6102736004803603810190808035906020019092919080359060200190929190505050610a2e565b6040518082815260200191505060405180910390f35b6102b16004803603810190808035906020019092919080359060200190929190505050610a50565b604051808215151515815260200191505060405180910390f35b6102f36004803603810190808035906020019092919080359060200190929190505050610a84565b6040518082815260200191505060405180910390f35b6103316004803603810190808035906020019092919080359060200190929190505050610aa6565b6040518082815260200191505060405180910390f35b61036f6004803603810190808035906020019092919080359060200190929190505050610ac8565b6040518082815260200191505060405180910390f35b6103ad6004803603810190808035906020019092919080359060200190929190505050610aea565b6040518082815260200191505060405180910390f35b6103cb610b0c565b6040518082815260200191505060405180910390f35b6104096004803603810190808035906020019092919080359060200190929190505050610b19565b6040518082815260200191505060405180910390f35b6104476004803603810190808035906020019092919080359060200190929190505050610b3b565b604051808215151515815260200191505060405180910390f35b6104b860048036038101908080359060200190820180359060200190808060200260200160405190810160405280939291908181526020018383602002808284378201915050505050509192919290505050610b5f565b6040518082815260200191505060405180910390f35b6104f66004803603810190808035906020019092919080359060200190929190505050610bf0565b604051808215151515815260200191505060405180910390f35b6105386004803603810190808035906020019092919080359060200190929190505050610c24565b604051808215151515815260200191505060405180910390f35b61057060048036038101908080359060200190929190505050610c32565b6040518082815260200191505060405180910390f35b67b17217f7d1cf79ac81565b6000808214806105ae575082828385028115156105ab57fe5b05145b905092915050565b680171547652b82fe17781565b6000806000806000806000871115156105db57600080fd5b6105e487610967565b945060008512156106005784600003879060020a02935061060b565b84879060020a900493505b680100000000000000008401680100000000000000008086030281151561062e57fe5b05925082915068010000000000000000836801000000000000000085860281151561065557fe5b050281151561066057fe5b05905060038181151561066f57fe5b058201915068010000000000000000836801000000000000000085840281151561069557fe5b05028115156106a057fe5b0590506005818115156106af57fe5b05820191506801000000000000000083680100000000000000008584028115156106d557fe5b05028115156106e057fe5b0590506007818115156106ef57fe5b058201915068010000000000000000836801000000000000000085840281151561071557fe5b050281151561072057fe5b05905060098181151561072f57fe5b058201915068010000000000000000836801000000000000000085840281151561075557fe5b050281151561076057fe5b059050600b8181151561076f57fe5b058201915068010000000000000000836801000000000000000085840281151561079557fe5b05028115156107a057fe5b059050600d818115156107af57fe5b05820191506801000000000000000083680100000000000000008584028115156107d557fe5b05028115156107e057fe5b059050600f818115156107ef57fe5b058201915068010000000000000000836801000000000000000085840281151561081557fe5b050281151561082057fe5b05905060118181151561082f57fe5b058201915068010000000000000000836801000000000000000085840281151561085557fe5b050281151561086057fe5b05905060138181151561086f57fe5b058201915068010000000000000000836801000000000000000085840281151561089557fe5b05028115156108a057fe5b0590506015818115156108af57fe5b05820191506801000000000000000083680100000000000000008584028115156108d557fe5b05028115156108e057fe5b0590506017818115156108ef57fe5b058201915068010000000000000000836801000000000000000085840281151561091557fe5b050281151561092057fe5b05905060198181151561092f57fe5b058201915081600202680171547652b82fe177680100000000000000008088020281151561095957fe5b050195505050505050919050565b60008060007fffffffffffffffffffffffffffffffffffffffffffffffffffffffffffffffc0925060c1915060018383019060020a900590505b81600184011215610a17576000811280156109cd57506801000000000000000081600003859060020a02105b806109f45750600081121580156109f357506801000000000000000081859060020a9004105b5b15610a0157809150610a05565b8092505b60018383019060020a900590506109a1565b5050919050565b6000828284011015905092915050565b6000610a3a8383610a1e565b1515610a4557600080fd5b818301905092915050565b6000808212158015610a6457508282840313155b80610a7c5750600082128015610a7b575082828403135b5b905092915050565b6000610a908383610bf0565b1515610a9b57600080fd5b818301905092915050565b6000610ab28383610a50565b1515610abd57600080fd5b818303905092915050565b6000610ad48383610c24565b1515610adf57600080fd5b818303905092915050565b6000610af68383610592565b1515610b0157600080fd5b818302905092915050565b6801000000000000000081565b6000610b258383610b3b565b1515610b3057600080fd5b818302905092915050565b600080821480610b5757508282838502811515610b5457fe5b04145b905092915050565b60008060008351111515610b7257600080fd5b7f80000000000000000000000000000000000000000000000000000000000000009150600090505b8251811015610bea57818382815181101515610bb257fe5b906020019060200201511315610bdd578281815181101515610bd057fe5b9060200190602002015191505b8080600101915050610b9a565b50919050565b6000808212158015610c0457508282840112155b80610c1c5750600082128015610c1b575082828401125b5b905092915050565b600081831015905092915050565b600080600080600068851591f9dd5b9b40d78613151515610c5257600080fd5b7fffffffffffffffffffffffffffffffffffffffffffffffd3a37a020b8c21950d861215610c835760009450611133565b67b17217f7d1cf79ac680100000000000000008702811515610ca157fe5b059550600086121515610ce1576801000000000000000086811515610cc257fe5b0593506801000000000000000086811515610cd957fe5b079250610d21565b60016801000000000000000087811515610cf757fe5b050393506801000000000000000086600003811515610d1257fe5b07680100000000000000000392505b829150680100000000000000009050680100000000000000008267b17217f7d1cf79ab02811515610d4e57fe5b048101905068010000000000000000838302811515610d6957fe5b0491506801000000000000000082673d7f7bff058b1d5002811515610d8a57fe5b048101905068010000000000000000838302811515610da557fe5b0491506801000000000000000082670e35846b82505fc502811515610dc657fe5b048101905068010000000000000000838302811515610de157fe5b0491506801000000000000000082670276556df749cee502811515610e0257fe5b048101905068010000000000000000838302811515610e1d57fe5b0491506801000000000000000082665761ff9e299cc402811515610e3d57fe5b048101905068010000000000000000838302811515610e5857fe5b0491506801000000000000000082660a184897c363c302811515610e7857fe5b048101905068010000000000000000838302811515610e9357fe5b049150680100000000000000008265ffe5fe2c458602811515610eb257fe5b048101905068010000000000000000838302811515610ecd57fe5b049150680100000000000000008265162c0223a5c802811515610eec57fe5b048101905068010000000000000000838302811515610f0757fe5b04915068010000000000000000826501b5253d395e02811515610f2657fe5b048101905068010000000000000000838302811515610f4157fe5b0491506801000000000000000082641e4cf5158b02811515610f5f57fe5b048101905068010000000000000000838302811515610f7a57fe5b04915068010000000000000000826401e8cac73502811515610f9857fe5b048101905068010000000000000000838302811515610fb357fe5b0491506801000000000000000082631c3bd65002811515610fd057fe5b048101905068010000000000000000838302811515610feb57fe5b049150680100000000000000008263018161930281151561100857fe5b04810190506801000000000000000083830281151561102357fe5b0491506801000000000000000082621314960281151561103f57fe5b04810190506801000000000000000083830281151561105a57fe5b049150680100000000000000008261e1b70281151561107557fe5b04810190506801000000000000000083830281151561109057fe5b04915068010000000000000000826109c7028115156110ab57fe5b048101905060008412151561111a57600084610100038260008212156110cd57fe5b9060020a90041115611101577fffffffffffffffffffffffffffffffffffffffffffffffffffffffffffffffff9450611133565b8381600082121561110e57fe5b9060020a029450611133565b8360000381600082121561112a57fe5b9060020a900494505b505050509190505600a165627a7a72305820719ebdca03c71decd784247509a2275438936424aec56f6628387d311f5084120029",
  "source": "pragma solidity ^0.4.4;\n/// @title Math library - Allows calculation of logarithmic and exponential functions\n/// @author Alan Lu - <alan.lu@gnosis.pm>\n/// @author Stefan George - <stefan@gnosis.pm>\nlibrary Math {\n\n    /*\n     *  Constants\n     */\n    // This is equal to 1 in our calculations\n    uint public constant ONE =  0x10000000000000000;\n    uint public constant LN2 = 0xb17217f7d1cf79ac;\n    uint public constant LOG2_E = 0x171547652b82fe177;\n\n    /*\n     *  Public functions\n     */\n    /// @dev Returns natural exponential function value of given x\n    /// @param x x\n    /// @return e**x\n    function exp(int x)\n        public\n        constant\n        returns (uint)\n    {\n        // revert if x is > MAX_POWER, where\n        // MAX_POWER = int(mp.floor(mp.log(mpf(2**256 - 1) / ONE) * ONE))\n        require(x <= 2454971259878909886679);\n        // return 0 if exp(x) is tiny, using\n        // MIN_POWER = int(mp.floor(mp.log(mpf(1) / ONE) * ONE))\n        if (x < -818323753292969962227)\n            return 0;\n        // Transform so that e^x -> 2^x\n        x = x * int(ONE) / int(LN2);\n        // 2^x = 2^whole(x) * 2^frac(x)\n        //       ^^^^^^^^^^ is a bit shift\n        // so Taylor expand on z = frac(x)\n        int shift;\n        uint z;\n        if (x >= 0) {\n            shift = x / int(ONE);\n            z = uint(x % int(ONE));\n        }\n        else {\n            shift = x / int(ONE) - 1;\n            z = ONE - uint(-x % int(ONE));\n        }\n        // 2^x = 1 + (ln 2) x + (ln 2)^2/2! x^2 + ...\n        //\n        // Can generate the z coefficients using mpmath and the following lines\n        // >>> from mpmath import mp\n        // >>> mp.dps = 100\n        // >>> ONE =  0x10000000000000000\n        // >>> print('\\n'.join(hex(int(mp.log(2)**i / mp.factorial(i) * ONE)) for i in range(1, 7)))\n        // 0xb17217f7d1cf79ab\n        // 0x3d7f7bff058b1d50\n        // 0xe35846b82505fc5\n        // 0x276556df749cee5\n        // 0x5761ff9e299cc4\n        // 0xa184897c363c3\n        uint zpow = z;\n        uint result = ONE;\n        result += 0xb17217f7d1cf79ab * zpow / ONE;\n        zpow = zpow * z / ONE;\n        result += 0x3d7f7bff058b1d50 * zpow / ONE;\n        zpow = zpow * z / ONE;\n        result += 0xe35846b82505fc5 * zpow / ONE;\n        zpow = zpow * z / ONE;\n        result += 0x276556df749cee5 * zpow / ONE;\n        zpow = zpow * z / ONE;\n        result += 0x5761ff9e299cc4 * zpow / ONE;\n        zpow = zpow * z / ONE;\n        result += 0xa184897c363c3 * zpow / ONE;\n        zpow = zpow * z / ONE;\n        result += 0xffe5fe2c4586 * zpow / ONE;\n        zpow = zpow * z / ONE;\n        result += 0x162c0223a5c8 * zpow / ONE;\n        zpow = zpow * z / ONE;\n        result += 0x1b5253d395e * zpow / ONE;\n        zpow = zpow * z / ONE;\n        result += 0x1e4cf5158b * zpow / ONE;\n        zpow = zpow * z / ONE;\n        result += 0x1e8cac735 * zpow / ONE;\n        zpow = zpow * z / ONE;\n        result += 0x1c3bd650 * zpow / ONE;\n        zpow = zpow * z / ONE;\n        result += 0x1816193 * zpow / ONE;\n        zpow = zpow * z / ONE;\n        result += 0x131496 * zpow / ONE;\n        zpow = zpow * z / ONE;\n        result += 0xe1b7 * zpow / ONE;\n        zpow = zpow * z / ONE;\n        result += 0x9c7 * zpow / ONE;\n        if (shift >= 0) {\n            if (result >> (256-shift) > 0)\n                return (2**256-1);\n            return result << shift;\n        }\n        else\n            return result >> (-shift);\n    }\n\n    /// @dev Returns natural logarithm value of given x\n    /// @param x x\n    /// @return ln(x)\n    function ln(uint x)\n        public\n        constant\n        returns (int)\n    {\n        require(x > 0);\n        // binary search for floor(log2(x))\n        int ilog2 = floorLog2(x);\n        int z;\n        if (ilog2 < 0)\n            z = int(x << uint(-ilog2));\n        else\n            z = int(x >> uint(ilog2));\n        // z = x * 2^-⌊log₂x⌋\n        // so 1 <= z < 2\n        // and ln z = ln x - ⌊log₂x⌋/log₂e\n        // so just compute ln z using artanh series\n        // and calculate ln x from that\n        int term = (z - int(ONE)) * int(ONE) / (z + int(ONE));\n        int halflnz = term;\n        int termpow = term * term / int(ONE) * term / int(ONE);\n        halflnz += termpow / 3;\n        termpow = termpow * term / int(ONE) * term / int(ONE);\n        halflnz += termpow / 5;\n        termpow = termpow * term / int(ONE) * term / int(ONE);\n        halflnz += termpow / 7;\n        termpow = termpow * term / int(ONE) * term / int(ONE);\n        halflnz += termpow / 9;\n        termpow = termpow * term / int(ONE) * term / int(ONE);\n        halflnz += termpow / 11;\n        termpow = termpow * term / int(ONE) * term / int(ONE);\n        halflnz += termpow / 13;\n        termpow = termpow * term / int(ONE) * term / int(ONE);\n        halflnz += termpow / 15;\n        termpow = termpow * term / int(ONE) * term / int(ONE);\n        halflnz += termpow / 17;\n        termpow = termpow * term / int(ONE) * term / int(ONE);\n        halflnz += termpow / 19;\n        termpow = termpow * term / int(ONE) * term / int(ONE);\n        halflnz += termpow / 21;\n        termpow = termpow * term / int(ONE) * term / int(ONE);\n        halflnz += termpow / 23;\n        termpow = termpow * term / int(ONE) * term / int(ONE);\n        halflnz += termpow / 25;\n        return (ilog2 * int(ONE)) * int(ONE) / int(LOG2_E) + 2 * halflnz;\n    }\n\n    /// @dev Returns base 2 logarithm value of given x\n    /// @param x x\n    /// @return logarithmic value\n    function floorLog2(uint x)\n        public\n        constant\n        returns (int lo)\n    {\n        lo = -64;\n        int hi = 193;\n        // I use a shift here instead of / 2 because it floors instead of rounding towards 0\n        int mid = (hi + lo) >> 1;\n        while((lo + 1) < hi) {\n            if (mid < 0 && x << uint(-mid) < ONE || mid >= 0 && x >> uint(mid) < ONE)\n                hi = mid;\n            else\n                lo = mid;\n            mid = (hi + lo) >> 1;\n        }\n    }\n\n    /// @dev Returns maximum of an array\n    /// @param nums Numbers to look through\n    /// @return Maximum number\n    function max(int[] nums)\n        public\n        constant\n        returns (int max)\n    {\n        require(nums.length > 0);\n        max = -2**255;\n        for (uint i = 0; i < nums.length; i++)\n            if (nums[i] > max)\n                max = nums[i];\n    }\n\n    /// @dev Returns whether an add operation causes an overflow\n    /// @param a First addend\n    /// @param b Second addend\n    /// @return Did no overflow occur?\n    function safeToAdd(uint a, uint b)\n        public\n        constant\n        returns (bool)\n    {\n        return a + b >= a;\n    }\n\n    /// @dev Returns whether a subtraction operation causes an underflow\n    /// @param a Minuend\n    /// @param b Subtrahend\n    /// @return Did no underflow occur?\n    function safeToSub(uint a, uint b)\n        public\n        constant\n        returns (bool)\n    {\n        return a >= b;\n    }\n\n    /// @dev Returns whether a multiply operation causes an overflow\n    /// @param a First factor\n    /// @param b Second factor\n    /// @return Did no overflow occur?\n    function safeToMul(uint a, uint b)\n        public\n        constant\n        returns (bool)\n    {\n        return b == 0 || a * b / b == a;\n    }\n\n    /// @dev Returns sum if no overflow occurred\n    /// @param a First addend\n    /// @param b Second addend\n    /// @return Sum\n    function add(uint a, uint b)\n        public\n        constant\n        returns (uint)\n    {\n        require(safeToAdd(a, b));\n        return a + b;\n    }\n\n    /// @dev Returns difference if no overflow occurred\n    /// @param a Minuend\n    /// @param b Subtrahend\n    /// @return Difference\n    function sub(uint a, uint b)\n        public\n        constant\n        returns (uint)\n    {\n        require(safeToSub(a, b));\n        return a - b;\n    }\n\n    /// @dev Returns product if no overflow occurred\n    /// @param a First factor\n    /// @param b Second factor\n    /// @return Product\n    function mul(uint a, uint b)\n        public\n        constant\n        returns (uint)\n    {\n        require(safeToMul(a, b));\n        return a * b;\n    }\n\n    /// @dev Returns whether an add operation causes an overflow\n    /// @param a First addend\n    /// @param b Second addend\n    /// @return Did no overflow occur?\n    function safeToAdd(int a, int b)\n        public\n        constant\n        returns (bool)\n    {\n        return (b >= 0 && a + b >= a) || (b < 0 && a + b < a);\n    }\n\n    /// @dev Returns whether a subtraction operation causes an underflow\n    /// @param a Minuend\n    /// @param b Subtrahend\n    /// @return Did no underflow occur?\n    function safeToSub(int a, int b)\n        public\n        constant\n        returns (bool)\n    {\n        return (b >= 0 && a - b <= a) || (b < 0 && a - b > a);\n    }\n\n    /// @dev Returns whether a multiply operation causes an overflow\n    /// @param a First factor\n    /// @param b Second factor\n    /// @return Did no overflow occur?\n    function safeToMul(int a, int b)\n        public\n        constant\n        returns (bool)\n    {\n        return (b == 0) || (a * b / b == a);\n    }\n\n    /// @dev Returns sum if no overflow occurred\n    /// @param a First addend\n    /// @param b Second addend\n    /// @return Sum\n    function add(int a, int b)\n        public\n        constant\n        returns (int)\n    {\n        require(safeToAdd(a, b));\n        return a + b;\n    }\n\n    /// @dev Returns difference if no overflow occurred\n    /// @param a Minuend\n    /// @param b Subtrahend\n    /// @return Difference\n    function sub(int a, int b)\n        public\n        constant\n        returns (int)\n    {\n        require(safeToSub(a, b));\n        return a - b;\n    }\n\n    /// @dev Returns product if no overflow occurred\n    /// @param a First factor\n    /// @param b Second factor\n    /// @return Product\n    function mul(int a, int b)\n        public\n        constant\n        returns (int)\n    {\n        require(safeToMul(a, b));\n        return a * b;\n    }\n}",
  "sourcePath": "/Users/antonvs/Projects/gnosis/Onboarding-ICO/contracts/lib/SafeMath.sol",
  "compiler": {
    "name": "solc",
    "version": "0.4.24+commit.e67f0147.Emscripten.clang"
  },
  "schemaVersion": "2.0.0",
  "updatedAt": "2018-07-01T18:17:10.290Z"
}