{
  "contractName": "MountContract",
  "abi": [
    {
      "constant": true,
      "inputs": [],
      "name": "lastDeposit",
      "outputs": [
        {
          "name": "",
          "type": "uint256"
        }
      ],
      "payable": false,
      "stateMutability": "view",
      "type": "function"
    },
    {
      "constant": true,
      "inputs": [],
      "name": "mounted",
      "outputs": [
        {
          "name": "",
          "type": "address"
        }
      ],
      "payable": false,
      "stateMutability": "view",
      "type": "function"
    },
    {
      "inputs": [],
      "payable": true,
      "stateMutability": "payable",
      "type": "constructor"
    },
    {
      "payable": true,
      "stateMutability": "payable",
      "type": "fallback"
    },
    {
      "constant": false,
      "inputs": [
        {
          "name": "_mountAddr",
          "type": "address"
        }
      ],
      "name": "Mount",
      "outputs": [],
      "payable": true,
      "stateMutability": "payable",
      "type": "function"
    },
    {
      "constant": false,
      "inputs": [],
      "name": "callMounted",
      "outputs": [],
      "payable": true,
      "stateMutability": "payable",
      "type": "function"
    }
  ],
  "bytecode": "0x608060405261023c806100136000396000f300608060405260043610610062576000357c0100000000000000000000000000000000000000000000000000000000900463ffffffff16806306e43c061461007557806336b77107146100ab578063a15ee135146100d6578063e918168f1461012d575b600034111561007357346001819055505b005b6100a9600480360381019080803573ffffffffffffffffffffffffffffffffffffffff169060200190929190505050610137565b005b3480156100b757600080fd5b506100c061017a565b6040518082815260200191505060405180910390f35b3480156100e257600080fd5b506100eb610180565b604051808273ffffffffffffffffffffffffffffffffffffffff1673ffffffffffffffffffffffffffffffffffffffff16815260200191505060405180910390f35b6101356101a5565b005b806000806101000a81548173ffffffffffffffffffffffffffffffffffffffff021916908373ffffffffffffffffffffffffffffffffffffffff16021790555050565b60015481565b6000809054906101000a900473ffffffffffffffffffffffffffffffffffffffff1681565b6000809054906101000a900473ffffffffffffffffffffffffffffffffffffffff1673ffffffffffffffffffffffffffffffffffffffff166108fc60019081150290604051600060405180830381858888f1935050505015801561020d573d6000803e3d6000fd5b505600a165627a7a7230582031eb2cc63869480106cb7d7439d6f640a3348cae5d74dd6fa7e824251e90a2c40029",
  "source": "pragma solidity ^0.4.4;\n\ncontract MountedContract {\n    uint256 public totalValue;\n\n    constructor() payable {\n    \n    }\n\n    function() external payable {\n        if (msg.value > 0) {\n            totalValue += msg.value;\n        }\n    }\n    \n    function getBalance() public view returns (uint) {\n        return this.balance;\n    }\n}\n\ncontract MountContract {\n    MountedContract public mounted;\n    uint public lastDeposit;\n\n    constructor() payable {\n        \n    }\n\n    function Mount(address _mountAddr) payable public {\n        mounted = MountedContract(_mountAddr);\n    }\n\n    function callMounted() public payable {\n        address(mounted).transfer(1);\n    }\n    \n    function() external payable {\n        if (msg.value > 0) \n            lastDeposit =  msg.value; \n    }\n\n}",
  "sourcePath": "/Users/antonvs/Projects/gnosis/Onboarding-ICO/contracts/tinkering/MountContract.sol",
  "compiler": {
    "name": "solc",
    "version": "0.4.24+commit.e67f0147.Emscripten.clang"
  },
  "schemaVersion": "2.0.0",
  "updatedAt": "2018-07-01T18:17:10.263Z"
}