{
  "contractName": "MountedContract",
  "abi": [
    {
      "constant": true,
      "inputs": [],
      "name": "totalValue",
      "outputs": [
        {
          "name": "",
          "type": "uint256"
        }
      ],
      "payable": false,
      "stateMutability": "view",
      "type": "function"
    },
    {
      "inputs": [],
      "payable": true,
      "stateMutability": "payable",
      "type": "constructor"
    },
    {
      "payable": true,
      "stateMutability": "payable",
      "type": "fallback"
    },
    {
      "constant": true,
      "inputs": [],
      "name": "getBalance",
      "outputs": [
        {
          "name": "",
          "type": "uint256"
        }
      ],
      "payable": false,
      "stateMutability": "view",
      "type": "function"
    }
  ],
  "bytecode": "0x608060405260ec806100126000396000f3006080604052600436106049576000357c0100000000000000000000000000000000000000000000000000000000900463ffffffff16806312065fe014604b578063d4c3eea0146073575b005b348015605657600080fd5b50605d609b565b6040518082815260200191505060405180910390f35b348015607e57600080fd5b50608560ba565b6040518082815260200191505060405180910390f35b60003073ffffffffffffffffffffffffffffffffffffffff1631905090565b600054815600a165627a7a72305820468c12116e5db1564300fcec66e4dc0b2115e6cdad0c01d251fe3a1f812193b30029",
  "source": "pragma solidity ^0.4.4;\n\ncontract MountedContract {\n    uint256 public totalValue;\n\n    constructor() public payable {\n    \n    }\n\n    function() external payable {\n\n    }\n    \n    function getBalance() public view returns (uint) {\n        return address(this).balance;\n    }\n}\n\ncontract MountContract {\n    MountedContract public mounted;\n    uint public lastDeposit;\n\n    constructor() public payable {\n        \n    }\n\n    function Mount(address _mountAddr) payable public {\n        mounted = MountedContract(_mountAddr);\n    }\n\n    function callMounted() public payable {\n        address(mounted).transfer(msg.value);\n    }\n    \n    function addressMounted() public view returns (address) {\n        return address(mounted);\n    }\n    \n    function viewAddress() public view returns (address) {\n        return address(this);\n    }\n    \n    function viewBalance() public view returns (uint) {\n        return address(this).balance;\n    }\n\n    function() external payable {\n        if (msg.value > 0) \n            lastDeposit =  msg.value; \n    }\n\n\n\n}",
  "sourcePath": "/Users/antonvs/Projects/gnosis/Onboarding-ICO/contracts/tinkering/MountContract.sol",
  "compiler": {
    "name": "solc",
    "version": "0.4.24+commit.e67f0147.Emscripten.clang"
  },
  "schemaVersion": "2.0.0",
  "updatedAt": "2018-07-02T12:32:21.085Z"
}