{
  "contractName": "MountedContract",
  "abi": [
    {
      "constant": true,
      "inputs": [],
      "name": "totalValue",
      "outputs": [
        {
          "name": "",
          "type": "uint256"
        }
      ],
      "payable": false,
      "stateMutability": "view",
      "type": "function"
    },
    {
      "inputs": [],
      "payable": true,
      "stateMutability": "payable",
      "type": "constructor"
    },
    {
      "payable": true,
      "stateMutability": "payable",
      "type": "fallback"
    },
    {
      "constant": true,
      "inputs": [],
      "name": "getBalance",
      "outputs": [
        {
          "name": "",
          "type": "uint256"
        }
      ],
      "payable": false,
      "stateMutability": "view",
      "type": "function"
    }
  ],
  "bytecode": "0x6080604052610104806100136000396000f3006080604052600436106049576000357c0100000000000000000000000000000000000000000000000000000000900463ffffffff16806312065fe0146063578063d4c3eea014608b575b60003411156061573460008082825401925050819055505b005b348015606e57600080fd5b50607560b3565b6040518082815260200191505060405180910390f35b348015609657600080fd5b50609d60d2565b6040518082815260200191505060405180910390f35b60003073ffffffffffffffffffffffffffffffffffffffff1631905090565b600054815600a165627a7a723058202b1fcff995a35e1cd5462b18ec5bb987dc7942f4fa1a9b7d60c27ad007a825b50029",
  "source": "pragma solidity ^0.4.4;\n\ncontract MountedContract {\n    uint256 public totalValue;\n\n    constructor() payable {\n    \n    }\n\n    function() external payable {\n        if (msg.value > 0) {\n            totalValue += msg.value;\n        }\n    }\n    \n    function getBalance() public view returns (uint) {\n        return this.balance;\n    }\n}\n\ncontract MountContract {\n    MountedContract public mounted;\n    uint public lastDeposit;\n\n    constructor() payable {\n        \n    }\n\n    function Mount(address _mountAddr) payable public {\n        mounted = MountedContract(_mountAddr);\n    }\n\n    function callMounted() public payable {\n        address(mounted).transfer(1);\n    }\n    \n    function() external payable {\n        if (msg.value > 0) \n            lastDeposit =  msg.value; \n    }\n\n}",
  "sourcePath": "/Users/antonvs/Projects/gnosis/Onboarding-ICO/contracts/tinkering/MountContract.sol",
  "compiler": {
    "name": "solc",
    "version": "0.4.24+commit.e67f0147.Emscripten.clang"
  },
  "schemaVersion": "2.0.0",
  "updatedAt": "2018-07-01T18:17:10.261Z"
}