{
  "contractName": "MountContract",
  "abi": [
    {
      "constant": true,
      "inputs": [],
      "name": "lastDeposit",
      "outputs": [
        {
          "name": "",
          "type": "uint256"
        }
      ],
      "payable": false,
      "stateMutability": "view",
      "type": "function"
    },
    {
      "constant": true,
      "inputs": [],
      "name": "mounted",
      "outputs": [
        {
          "name": "",
          "type": "address"
        }
      ],
      "payable": false,
      "stateMutability": "view",
      "type": "function"
    },
    {
      "inputs": [],
      "payable": true,
      "stateMutability": "payable",
      "type": "constructor"
    },
    {
      "payable": true,
      "stateMutability": "payable",
      "type": "fallback"
    },
    {
      "constant": false,
      "inputs": [
        {
          "name": "_mountAddr",
          "type": "address"
        }
      ],
      "name": "Mount",
      "outputs": [],
      "payable": true,
      "stateMutability": "payable",
      "type": "function"
    },
    {
      "constant": false,
      "inputs": [],
      "name": "callMounted",
      "outputs": [],
      "payable": true,
      "stateMutability": "payable",
      "type": "function"
    },
    {
      "constant": true,
      "inputs": [],
      "name": "addressMounted",
      "outputs": [
        {
          "name": "",
          "type": "address"
        }
      ],
      "payable": false,
      "stateMutability": "view",
      "type": "function"
    },
    {
      "constant": true,
      "inputs": [],
      "name": "viewAddress",
      "outputs": [
        {
          "name": "",
          "type": "address"
        }
      ],
      "payable": false,
      "stateMutability": "view",
      "type": "function"
    },
    {
      "constant": true,
      "inputs": [],
      "name": "viewBalance",
      "outputs": [
        {
          "name": "",
          "type": "uint256"
        }
      ],
      "payable": false,
      "stateMutability": "view",
      "type": "function"
    }
  ],
  "bytecode": "0x6080604052610385806100136000396000f300608060405260043610610083576000357c0100000000000000000000000000000000000000000000000000000000900463ffffffff16806306e43c061461009657806318b04c8a146100cc57806336b77107146101235780633ff1e05b1461014e5780639db5383814610179578063a15ee135146101d0578063e918168f14610227575b600034111561009457346001819055505b005b6100ca600480360381019080803573ffffffffffffffffffffffffffffffffffffffff169060200190929190505050610231565b005b3480156100d857600080fd5b506100e1610274565b604051808273ffffffffffffffffffffffffffffffffffffffff1673ffffffffffffffffffffffffffffffffffffffff16815260200191505060405180910390f35b34801561012f57600080fd5b5061013861027c565b6040518082815260200191505060405180910390f35b34801561015a57600080fd5b50610163610282565b6040518082815260200191505060405180910390f35b34801561018557600080fd5b5061018e6102a1565b604051808273ffffffffffffffffffffffffffffffffffffffff1673ffffffffffffffffffffffffffffffffffffffff16815260200191505060405180910390f35b3480156101dc57600080fd5b506101e56102ca565b604051808273ffffffffffffffffffffffffffffffffffffffff1673ffffffffffffffffffffffffffffffffffffffff16815260200191505060405180910390f35b61022f6102ef565b005b806000806101000a81548173ffffffffffffffffffffffffffffffffffffffff021916908373ffffffffffffffffffffffffffffffffffffffff16021790555050565b600030905090565b60015481565b60003073ffffffffffffffffffffffffffffffffffffffff1631905090565b60008060009054906101000a900473ffffffffffffffffffffffffffffffffffffffff16905090565b6000809054906101000a900473ffffffffffffffffffffffffffffffffffffffff1681565b6000809054906101000a900473ffffffffffffffffffffffffffffffffffffffff1673ffffffffffffffffffffffffffffffffffffffff166108fc349081150290604051600060405180830381858888f19350505050158015610356573d6000803e3d6000fd5b505600a165627a7a72305820993e6943568759aacd784d3fce446bfae890be26beb55d1f01fb4d9f6765d0360029",
  "source": "pragma solidity ^0.4.4;\n\ncontract MountedContract {\n    uint256 public totalValue;\n\n    constructor() public payable {\n    \n    }\n\n    function() external payable {\n\n    }\n    \n    function getBalance() public view returns (uint) {\n        return address(this).balance;\n    }\n}\n\ncontract MountContract {\n    MountedContract public mounted;\n    uint public lastDeposit;\n\n    constructor() public payable {\n        \n    }\n\n    function Mount(address _mountAddr) payable public {\n        mounted = MountedContract(_mountAddr);\n    }\n\n    function callMounted() public payable {\n        address(mounted).transfer(msg.value);\n    }\n    \n    function addressMounted() public view returns (address) {\n        return address(mounted);\n    }\n    \n    function viewAddress() public view returns (address) {\n        return address(this);\n    }\n    \n    function viewBalance() public view returns (uint) {\n        return address(this).balance;\n    }\n\n    function() external payable {\n        if (msg.value > 0) \n            lastDeposit =  msg.value; \n    }\n\n\n\n}",
  "sourcePath": "/Users/antonvs/Projects/gnosis/ScamToken/contracts/tinkering/MountContract.sol",
  "compiler": {
    "name": "solc",
    "version": "0.4.24+commit.e67f0147.Emscripten.clang"
  },
  "schemaVersion": "2.0.0",
  "updatedAt": "2018-07-06T06:41:26.186Z"
}