{
  "contractName": "Search",
  "abi": [
    {
      "constant": true,
      "inputs": [
        {
          "name": "self",
          "type": "uint256[] storage"
        },
        {
          "name": "value",
          "type": "uint256"
        }
      ],
      "name": "indexOf",
      "outputs": [
        {
          "name": "",
          "type": "uint256"
        }
      ],
      "payable": false,
      "stateMutability": "view",
      "type": "function"
    }
  ],
  "bytecode": "0x61013b610030600b82828239805160001a6073146000811461002057610022565bfe5b5030600052607381538281f3007300000000000000000000000000000000000000003014608060405260043610610058576000357c0100000000000000000000000000000000000000000000000000000000900463ffffffff16806324fef5c81461005d575b600080fd5b610085600480360381019080803590602001909291908035906020019092919050505061009b565b6040518082815260200191505060405180910390f35b600080600090505b83805490508110156100e4578284828154811015156100be57fe5b906000526020600020015414156100d757809150610108565b80806001019150506100a3565b7fffffffffffffffffffffffffffffffffffffffffffffffffffffffffffffffff91505b50929150505600a165627a7a7230582026ab6f7271261c6273edd8c5e703dbec729c107163c4c0997a1117fe64a42a0c0029",
  "source": "library Search {\n    function indexOf(uint[] storage self, uint value)\n        public\n        view\n        returns (uint)\n    {\n        for (uint i = 0; i < self.length; i++)\n            if (self[i] == value) return i;\n        return uint(-1);\n    }\n}",
  "sourcePath": "/Users/antonvs/Projects/gnosis/ScamToken/contracts/lib/Search.sol",
  "compiler": {
    "name": "solc",
    "version": "0.4.24+commit.e67f0147.Emscripten.clang"
  },
  "schemaVersion": "2.0.0",
  "updatedAt": "2018-07-07T10:03:24.892Z"
}